{
  "_format": "hh-sol-artifact-1",
  "contractName": "MarketPlace",
  "sourceName": "contracts/MarketPlace.sol",
  "abi": [
    {
      "inputs": [],
      "stateMutability": "nonpayable",
      "type": "constructor"
    },
    {
      "anonymous": false,
      "inputs": [
        {
          "indexed": false,
          "internalType": "uint256",
          "name": "tokenId",
          "type": "uint256"
        }
      ],
      "name": "AuctionCancelled",
      "type": "event"
    },
    {
      "anonymous": false,
      "inputs": [
        {
          "indexed": false,
          "internalType": "uint256",
          "name": "tokenId",
          "type": "uint256"
        },
        {
          "indexed": false,
          "internalType": "address",
          "name": "buyer",
          "type": "address"
        },
        {
          "indexed": false,
          "internalType": "uint256",
          "name": "price",
          "type": "uint256"
        }
      ],
      "name": "AuctionClosed",
      "type": "event"
    },
    {
      "anonymous": false,
      "inputs": [
        {
          "indexed": false,
          "internalType": "uint256",
          "name": "nftTokenId",
          "type": "uint256"
        },
        {
          "indexed": false,
          "internalType": "uint256",
          "name": "startPrice",
          "type": "uint256"
        },
        {
          "indexed": false,
          "internalType": "uint256",
          "name": "endPrice",
          "type": "uint256"
        },
        {
          "indexed": false,
          "internalType": "uint256",
          "name": "endTime",
          "type": "uint256"
        }
      ],
      "name": "AuctionCreated",
      "type": "event"
    },
    {
      "anonymous": false,
      "inputs": [
        {
          "indexed": false,
          "internalType": "uint256",
          "name": "nftTokenId",
          "type": "uint256"
        },
        {
          "indexed": false,
          "internalType": "uint256",
          "name": "startPrice",
          "type": "uint256"
        },
        {
          "indexed": false,
          "internalType": "uint256",
          "name": "endPrice",
          "type": "uint256"
        },
        {
          "indexed": false,
          "internalType": "uint256",
          "name": "endTime",
          "type": "uint256"
        }
      ],
      "name": "AuctionRevived",
      "type": "event"
    },
    {
      "anonymous": false,
      "inputs": [
        {
          "indexed": false,
          "internalType": "uint8",
          "name": "version",
          "type": "uint8"
        }
      ],
      "name": "Initialized",
      "type": "event"
    },
    {
      "anonymous": false,
      "inputs": [
        {
          "indexed": true,
          "internalType": "bytes32",
          "name": "role",
          "type": "bytes32"
        },
        {
          "indexed": true,
          "internalType": "bytes32",
          "name": "previousAdminRole",
          "type": "bytes32"
        },
        {
          "indexed": true,
          "internalType": "bytes32",
          "name": "newAdminRole",
          "type": "bytes32"
        }
      ],
      "name": "RoleAdminChanged",
      "type": "event"
    },
    {
      "anonymous": false,
      "inputs": [
        {
          "indexed": true,
          "internalType": "bytes32",
          "name": "role",
          "type": "bytes32"
        },
        {
          "indexed": true,
          "internalType": "address",
          "name": "account",
          "type": "address"
        },
        {
          "indexed": true,
          "internalType": "address",
          "name": "sender",
          "type": "address"
        }
      ],
      "name": "RoleGranted",
      "type": "event"
    },
    {
      "anonymous": false,
      "inputs": [
        {
          "indexed": true,
          "internalType": "bytes32",
          "name": "role",
          "type": "bytes32"
        },
        {
          "indexed": true,
          "internalType": "address",
          "name": "account",
          "type": "address"
        },
        {
          "indexed": true,
          "internalType": "address",
          "name": "sender",
          "type": "address"
        }
      ],
      "name": "RoleRevoked",
      "type": "event"
    },
    {
      "anonymous": false,
      "inputs": [
        {
          "indexed": false,
          "internalType": "uint256",
          "name": "royaltyFee",
          "type": "uint256"
        },
        {
          "indexed": false,
          "internalType": "uint256",
          "name": "feeDenominator",
          "type": "uint256"
        }
      ],
      "name": "RoyaltyFeeSet",
      "type": "event"
    },
    {
      "inputs": [],
      "name": "CEO_ROLE",
      "outputs": [
        {
          "internalType": "bytes32",
          "name": "",
          "type": "bytes32"
        }
      ],
      "stateMutability": "view",
      "type": "function"
    },
    {
      "inputs": [],
      "name": "CFO_ROLE",
      "outputs": [
        {
          "internalType": "bytes32",
          "name": "",
          "type": "bytes32"
        }
      ],
      "stateMutability": "view",
      "type": "function"
    },
    {
      "inputs": [],
      "name": "DEFAULT_ADMIN_ROLE",
      "outputs": [
        {
          "internalType": "bytes32",
          "name": "",
          "type": "bytes32"
        }
      ],
      "stateMutability": "view",
      "type": "function"
    },
    {
      "inputs": [],
      "name": "TOKEN",
      "outputs": [
        {
          "internalType": "uint256",
          "name": "",
          "type": "uint256"
        }
      ],
      "stateMutability": "view",
      "type": "function"
    },
    {
      "inputs": [
        {
          "internalType": "uint256",
          "name": "",
          "type": "uint256"
        }
      ],
      "name": "auctions",
      "outputs": [
        {
          "internalType": "address",
          "name": "owner",
          "type": "address"
        },
        {
          "internalType": "uint256",
          "name": "startTime",
          "type": "uint256"
        },
        {
          "internalType": "uint256",
          "name": "endTime",
          "type": "uint256"
        },
        {
          "internalType": "uint256",
          "name": "startPrice",
          "type": "uint256"
        },
        {
          "internalType": "uint256",
          "name": "endPrice",
          "type": "uint256"
        }
      ],
      "stateMutability": "view",
      "type": "function"
    },
    {
      "inputs": [
        {
          "internalType": "uint256",
          "name": "nftTokenId",
          "type": "uint256"
        }
      ],
      "name": "cancelAuction",
      "outputs": [],
      "stateMutability": "nonpayable",
      "type": "function"
    },
    {
      "inputs": [
        {
          "internalType": "uint256",
          "name": "nftTokenId",
          "type": "uint256"
        }
      ],
      "name": "closeAuction",
      "outputs": [],
      "stateMutability": "nonpayable",
      "type": "function"
    },
    {
      "inputs": [
        {
          "internalType": "uint256",
          "name": "nftTokenId",
          "type": "uint256"
        },
        {
          "internalType": "uint256",
          "name": "startPrice",
          "type": "uint256"
        },
        {
          "internalType": "uint256",
          "name": "endPrice",
          "type": "uint256"
        },
        {
          "internalType": "uint256",
          "name": "endTime",
          "type": "uint256"
        }
      ],
      "name": "createAuction",
      "outputs": [],
      "stateMutability": "nonpayable",
      "type": "function"
    },
    {
      "inputs": [],
      "name": "feeDenominator",
      "outputs": [
        {
          "internalType": "uint256",
          "name": "",
          "type": "uint256"
        }
      ],
      "stateMutability": "view",
      "type": "function"
    },
    {
      "inputs": [
        {
          "internalType": "uint256[]",
          "name": "tokenIds",
          "type": "uint256[]"
        }
      ],
      "name": "getAuctionInfo",
      "outputs": [
        {
          "components": [
            {
              "internalType": "address",
              "name": "owner",
              "type": "address"
            },
            {
              "internalType": "uint256",
              "name": "startTime",
              "type": "uint256"
            },
            {
              "internalType": "uint256",
              "name": "endTime",
              "type": "uint256"
            },
            {
              "internalType": "uint256",
              "name": "startPrice",
              "type": "uint256"
            },
            {
              "internalType": "uint256",
              "name": "endPrice",
              "type": "uint256"
            }
          ],
          "internalType": "struct MarketPlace.Auction[]",
          "name": "orders",
          "type": "tuple[]"
        }
      ],
      "stateMutability": "view",
      "type": "function"
    },
    {
      "inputs": [
        {
          "internalType": "uint256",
          "name": "nftTokenId",
          "type": "uint256"
        }
      ],
      "name": "getAuctionPrice",
      "outputs": [
        {
          "internalType": "uint256",
          "name": "",
          "type": "uint256"
        }
      ],
      "stateMutability": "view",
      "type": "function"
    },
    {
      "inputs": [
        {
          "internalType": "bytes32",
          "name": "role",
          "type": "bytes32"
        }
      ],
      "name": "getRoleAdmin",
      "outputs": [
        {
          "internalType": "bytes32",
          "name": "",
          "type": "bytes32"
        }
      ],
      "stateMutability": "view",
      "type": "function"
    },
    {
      "inputs": [
        {
          "internalType": "bytes32",
          "name": "role",
          "type": "bytes32"
        },
        {
          "internalType": "address",
          "name": "account",
          "type": "address"
        }
      ],
      "name": "grantRole",
      "outputs": [],
      "stateMutability": "nonpayable",
      "type": "function"
    },
    {
      "inputs": [
        {
          "internalType": "bytes32",
          "name": "role",
          "type": "bytes32"
        },
        {
          "internalType": "address",
          "name": "account",
          "type": "address"
        }
      ],
      "name": "hasRole",
      "outputs": [
        {
          "internalType": "bool",
          "name": "",
          "type": "bool"
        }
      ],
      "stateMutability": "view",
      "type": "function"
    },
    {
      "inputs": [
        {
          "internalType": "address",
          "name": "_multiToken",
          "type": "address"
        },
        {
          "internalType": "uint256",
          "name": "_firstNftIndex",
          "type": "uint256"
        },
        {
          "internalType": "uint256",
          "name": "_royaltyFee",
          "type": "uint256"
        },
        {
          "internalType": "uint256",
          "name": "_feeDenominator",
          "type": "uint256"
        }
      ],
      "name": "initialize",
      "outputs": [],
      "stateMutability": "nonpayable",
      "type": "function"
    },
    {
      "inputs": [],
      "name": "multiToken",
      "outputs": [
        {
          "internalType": "contract MultiTokenInterface",
          "name": "",
          "type": "address"
        }
      ],
      "stateMutability": "view",
      "type": "function"
    },
    {
      "inputs": [
        {
          "internalType": "address",
          "name": "",
          "type": "address"
        },
        {
          "internalType": "address",
          "name": "",
          "type": "address"
        },
        {
          "internalType": "uint256[]",
          "name": "",
          "type": "uint256[]"
        },
        {
          "internalType": "uint256[]",
          "name": "",
          "type": "uint256[]"
        },
        {
          "internalType": "bytes",
          "name": "",
          "type": "bytes"
        }
      ],
      "name": "onERC1155BatchReceived",
      "outputs": [
        {
          "internalType": "bytes4",
          "name": "",
          "type": "bytes4"
        }
      ],
      "stateMutability": "nonpayable",
      "type": "function"
    },
    {
      "inputs": [
        {
          "internalType": "address",
          "name": "",
          "type": "address"
        },
        {
          "internalType": "address",
          "name": "",
          "type": "address"
        },
        {
          "internalType": "uint256",
          "name": "",
          "type": "uint256"
        },
        {
          "internalType": "uint256",
          "name": "",
          "type": "uint256"
        },
        {
          "internalType": "bytes",
          "name": "",
          "type": "bytes"
        }
      ],
      "name": "onERC1155Received",
      "outputs": [
        {
          "internalType": "bytes4",
          "name": "",
          "type": "bytes4"
        }
      ],
      "stateMutability": "nonpayable",
      "type": "function"
    },
    {
      "inputs": [
        {
          "internalType": "bytes32",
          "name": "role",
          "type": "bytes32"
        },
        {
          "internalType": "address",
          "name": "account",
          "type": "address"
        }
      ],
      "name": "renounceRole",
      "outputs": [],
      "stateMutability": "nonpayable",
      "type": "function"
    },
    {
      "inputs": [
        {
          "internalType": "uint256",
          "name": "nftTokenId",
          "type": "uint256"
        }
      ],
      "name": "reviveAuction",
      "outputs": [],
      "stateMutability": "nonpayable",
      "type": "function"
    },
    {
      "inputs": [
        {
          "internalType": "bytes32",
          "name": "role",
          "type": "bytes32"
        },
        {
          "internalType": "address",
          "name": "account",
          "type": "address"
        }
      ],
      "name": "revokeRole",
      "outputs": [],
      "stateMutability": "nonpayable",
      "type": "function"
    },
    {
      "inputs": [],
      "name": "royaltyFee",
      "outputs": [
        {
          "internalType": "uint256",
          "name": "",
          "type": "uint256"
        }
      ],
      "stateMutability": "view",
      "type": "function"
    },
    {
      "inputs": [
        {
          "internalType": "uint256",
          "name": "newRoyaltyFee",
          "type": "uint256"
        },
        {
          "internalType": "uint256",
          "name": "newFeeDenominator",
          "type": "uint256"
        }
      ],
      "name": "setRoyaltyFee",
      "outputs": [],
      "stateMutability": "nonpayable",
      "type": "function"
    },
    {
      "inputs": [
        {
          "internalType": "bytes4",
          "name": "interfaceId",
          "type": "bytes4"
        }
      ],
      "name": "supportsInterface",
      "outputs": [
        {
          "internalType": "bool",
          "name": "",
          "type": "bool"
        }
      ],
      "stateMutability": "view",
      "type": "function"
    }
  ],
  "bytecode": "0x60806040523480156200001157600080fd5b5060008060019054906101000a900460ff16159050808015620000445750600160008054906101000a900460ff1660ff16105b8062000080575062000061306200016360201b62001a671760201c565b1580156200007f5750600160008054906101000a900460ff1660ff16145b5b620000c2576040517f08c379a0000000000000000000000000000000000000000000000000000000008152600401620000b9906200020d565b60405180910390fd5b60016000806101000a81548160ff021916908360ff160217905550801562000100576001600060016101000a81548160ff0219169083151502179055505b80156200015c5760008060016101000a81548160ff0219169083151502179055507f7f26b83ff96e1f2b6a682f133852f6798a09c465da95921460cefb3847402498600160405162000153919062000289565b60405180910390a15b50620002a6565b6000808273ffffffffffffffffffffffffffffffffffffffff163b119050919050565b600082825260208201905092915050565b7f496e697469616c697a61626c653a20636f6e747261637420697320616c72656160008201527f647920696e697469616c697a6564000000000000000000000000000000000000602082015250565b6000620001f5602e8362000186565b9150620002028262000197565b604082019050919050565b600060208201905081810360008301526200022881620001e6565b9050919050565b6000819050919050565b600060ff82169050919050565b6000819050919050565b6000620002716200026b62000265846200022f565b62000246565b62000239565b9050919050565b620002838162000250565b82525050565b6000602082019050620002a0600083018462000278565b92915050565b613acd80620002b66000396000f3fe608060405234801561001057600080fd5b50600436106101585760003560e01c80636beda7c3116100c3578063aa5e0c2c1161007c578063aa5e0c2c146103d9578063b514be63146103f7578063b8997a9714610415578063bc197c8114610433578063d547741f14610463578063f23a6e611461047f57610158565b80636beda7c3146102f1578063917d009e1461032157806391d148541461035157806396b5a755146103815780639f6f50ed1461039d578063a217fddf146103bb57610158565b806336568abe1161011557806336568abe14610231578063431f21da1461024d5780634527e257146102695780634e30ff2d146102855780634ec81af1146102a1578063571a26a0146102bd57610158565b806301ffc9a71461015d578063180b0d7e1461018d5780631904e5c9146101ab578063236ed8f3146101c9578063248a9ca3146101e55780632f2ff15d14610215575b600080fd5b61017760048036038101906101729190612313565b6104af565b604051610184919061235b565b60405180910390f35b6101956104c1565b6040516101a2919061238f565b60405180910390f35b6101b36104c8565b6040516101c09190612429565b60405180910390f35b6101e360048036038101906101de9190612470565b6104ef565b005b6101ff60048036038101906101fa91906124d3565b610b6b565b60405161020c919061250f565b60405180910390f35b61022f600480360381019061022a9190612568565b610b8b565b005b61024b60048036038101906102469190612568565b610bac565b005b610267600480360381019061026291906125a8565b610c2f565b005b610283600480360381019061027e9190612470565b611021565b005b61029f600480360381019061029a919061260f565b6111af565b005b6102bb60048036038101906102b6919061264f565b611269565b005b6102d760048036038101906102d29190612470565b611422565b6040516102e89594939291906126c5565b60405180910390f35b61030b60048036038101906103069190612871565b611479565b60405161031891906129ef565b60405180910390f35b61033b60048036038101906103369190612470565b6115cc565b604051610348919061238f565b60405180910390f35b61036b60048036038101906103669190612568565b611662565b604051610378919061235b565b60405180910390f35b61039b60048036038101906103969190612470565b6116cd565b005b6103a56119de565b6040516103b2919061250f565b60405180910390f35b6103c3611a02565b6040516103d0919061250f565b60405180910390f35b6103e1611a09565b6040516103ee919061238f565b60405180910390f35b6103ff611a0e565b60405161040c919061250f565b60405180910390f35b61041d611a15565b60405161042a919061238f565b60405180910390f35b61044d60048036038101906104489190612ac6565b611a1c565b60405161045a9190612ba4565b60405180910390f35b61047d60048036038101906104789190612568565b611a31565b005b61049960048036038101906104949190612bbf565b611a52565b6040516104a69190612ba4565b60405180910390f35b60006104ba82611a8a565b9050919050565b61012f5481565b61013060009054906101000a900473ffffffffffffffffffffffffffffffffffffffff1681565b6104f7611b04565b600061013160008381526020019081526020016000209050600073ffffffffffffffffffffffffffffffffffffffff16610131600084815260200190815260200160002060000160009054906101000a900473ffffffffffffffffffffffffffffffffffffffff1673ffffffffffffffffffffffffffffffffffffffff16036105b5576040517f08c379a00000000000000000000000000000000000000000000000000000000081526004016105ac90612cb3565b60405180910390fd5b60008160020154111561060a578060020154421115610609576040517f08c379a000000000000000000000000000000000000000000000000000000000815260040161060090612d1f565b60405180910390fd5b5b6000610615836115cc565b905061013060009054906101000a900473ffffffffffffffffffffffffffffffffffffffff1673ffffffffffffffffffffffffffffffffffffffff1663bae37c5b846040518263ffffffff1660e01b8152600401610673919061238f565b602060405180830381865afa158015610690573d6000803e3d6000fd5b505050506040513d601f19601f820116820180604052508101906106b49190612d6b565b1561082c57600061012f548261012e546106ce9190612dc7565b6106d89190612e38565b905080826106e69190612e69565b915061013060009054906101000a900473ffffffffffffffffffffffffffffffffffffffff1673ffffffffffffffffffffffffffffffffffffffff1663f242432a3361013060009054906101000a900473ffffffffffffffffffffffffffffffffffffffff1673ffffffffffffffffffffffffffffffffffffffff1663124cfc8c886040518263ffffffff1660e01b8152600401610784919061238f565b602060405180830381865afa1580156107a1573d6000803e3d6000fd5b505050506040513d601f19601f820116820180604052508101906107c59190612eb2565b600085604051806020016040528060008152506040518663ffffffff1660e01b81526004016107f8959493929190612f5e565b600060405180830381600087803b15801561081257600080fd5b505af1158015610826573d6000803e3d6000fd5b50505050505b61013060009054906101000a900473ffffffffffffffffffffffffffffffffffffffff1673ffffffffffffffffffffffffffffffffffffffff1663041c8221846040518263ffffffff1660e01b8152600401610888919061238f565b602060405180830381865afa1580156108a5573d6000803e3d6000fd5b505050506040513d601f19601f820116820180604052508101906108c99190612d6b565b61095c5761013060009054906101000a900473ffffffffffffffffffffffffffffffffffffffff1673ffffffffffffffffffffffffffffffffffffffff1663f8701a72846040518263ffffffff1660e01b8152600401610929919061238f565b600060405180830381600087803b15801561094357600080fd5b505af1158015610957573d6000803e3d6000fd5b505050505b61013060009054906101000a900473ffffffffffffffffffffffffffffffffffffffff1673ffffffffffffffffffffffffffffffffffffffff1663f242432a338460000160009054906101000a900473ffffffffffffffffffffffffffffffffffffffff16600085604051806020016040528060008152506040518663ffffffff1660e01b81526004016109f4959493929190612f5e565b600060405180830381600087803b158015610a0e57600080fd5b505af1158015610a22573d6000803e3d6000fd5b5050505061013060009054906101000a900473ffffffffffffffffffffffffffffffffffffffff1673ffffffffffffffffffffffffffffffffffffffff1663f242432a3033866001604051806020016040528060008152506040518663ffffffff1660e01b8152600401610a9a959493929190612ff3565b600060405180830381600087803b158015610ab457600080fd5b505af1158015610ac8573d6000803e3d6000fd5b505050506000610131600085815260200190815260200160002060000160006101000a81548173ffffffffffffffffffffffffffffffffffffffff021916908373ffffffffffffffffffffffffffffffffffffffff1602179055507f0fd59af99488577e947ca6af8145cd0b7acca6ab513674da434824527ed13251833383604051610b569392919061304d565b60405180910390a15050610b68611b53565b50565b600060c96000838152602001908152602001600020600101549050919050565b610b9482610b6b565b610b9d81611b5d565b610ba78383611b71565b505050565b610bb4611c52565b73ffffffffffffffffffffffffffffffffffffffff168173ffffffffffffffffffffffffffffffffffffffff1614610c21576040517f08c379a0000000000000000000000000000000000000000000000000000000008152600401610c18906130f6565b60405180910390fd5b610c2b8282611c5a565b5050565b61012d548411610c74576040517f08c379a0000000000000000000000000000000000000000000000000000000008152600401610c6b90613162565b60405180910390fd5b61013060009054906101000a900473ffffffffffffffffffffffffffffffffffffffff1673ffffffffffffffffffffffffffffffffffffffff16636cd59ec2856040518263ffffffff1660e01b8152600401610cd0919061238f565b602060405180830381865afa158015610ced573d6000803e3d6000fd5b505050506040513d601f19601f82011682018060405250810190610d119190612d6b565b15610d51576040517f08c379a0000000000000000000000000000000000000000000000000000000008152600401610d48906131ce565b60405180910390fd5b600073ffffffffffffffffffffffffffffffffffffffff16610131600086815260200190815260200160002060000160009054906101000a900473ffffffffffffffffffffffffffffffffffffffff1673ffffffffffffffffffffffffffffffffffffffff1614610df7576040517f08c379a0000000000000000000000000000000000000000000000000000000008152600401610dee9061323a565b60405180910390fd5b42811180610e055750600081145b610e44576040517f08c379a0000000000000000000000000000000000000000000000000000000008152600401610e3b906132cc565b60405180910390fd5b818311610e86576040517f08c379a0000000000000000000000000000000000000000000000000000000008152600401610e7d9061335e565b60405180910390fd5b6040518060a001604052803373ffffffffffffffffffffffffffffffffffffffff16815260200142815260200182815260200184815260200183815250610131600086815260200190815260200160002060008201518160000160006101000a81548173ffffffffffffffffffffffffffffffffffffffff021916908373ffffffffffffffffffffffffffffffffffffffff1602179055506020820151816001015560408201518160020155606082015181600301556080820151816004015590505061013060009054906101000a900473ffffffffffffffffffffffffffffffffffffffff1673ffffffffffffffffffffffffffffffffffffffff1663f242432a33308760016040518563ffffffff1660e01b8152600401610fac94939291906133a4565b600060405180830381600087803b158015610fc657600080fd5b505af1158015610fda573d6000803e3d6000fd5b505050507fa9c8dfcda5664a5a124c713e386da27de87432d5b668e79458501eb296389ba78484848460405161101394939291906133fc565b60405180910390a150505050565b600061013160008381526020019081526020016000209050600073ffffffffffffffffffffffffffffffffffffffff16610131600084815260200190815260200160002060000160009054906101000a900473ffffffffffffffffffffffffffffffffffffffff1673ffffffffffffffffffffffffffffffffffffffff16036110df576040517f08c379a00000000000000000000000000000000000000000000000000000000081526004016110d690612cb3565b60405180910390fd5b80600201544211611125576040517f08c379a000000000000000000000000000000000000000000000000000000000815260040161111c9061348d565b60405180910390fd5b600081600201541461115957806001015481600201544261114691906134ad565b6111509190612e69565b81600201819055505b4281600101819055507f6048df55c5183246a0c49932e55cf9134e30567c97d51122e8cb5aaf008a533f828260030154836004015484600201546040516111a394939291906133fc565b60405180910390a15050565b7fa3096443b30f1eec162a8cf66862cf662a85fd0e4fd35a824b183bfeac968c326111d981611b5d565b81831061121b576040517f08c379a000000000000000000000000000000000000000000000000000000000815260040161121290613553565b60405180910390fd5b8261012e819055508161012f819055507f44ce759906834eb9925a36b66f29c5059c5ccee1a1048d3ea5877a58329e7efb838360405161125c929190613573565b60405180910390a1505050565b60008060019054906101000a900460ff1615905080801561129a5750600160008054906101000a900460ff1660ff16105b806112c757506112a930611a67565b1580156112c65750600160008054906101000a900460ff1660ff16145b5b611306576040517f08c379a00000000000000000000000000000000000000000000000000000000081526004016112fd9061360e565b60405180910390fd5b60016000806101000a81548160ff021916908360ff1602179055508015611343576001600060016101000a81548160ff0219169083151502179055505b61134b611d3c565b611353611d8d565b61135b611dde565b6113686000801b33611b71565b8461013060006101000a81548173ffffffffffffffffffffffffffffffffffffffff021916908373ffffffffffffffffffffffffffffffffffffffff1602179055508361012d819055508261012e819055508161012f81905550801561141b5760008060016101000a81548160ff0219169083151502179055507f7f26b83ff96e1f2b6a682f133852f6798a09c465da95921460cefb38474024986001604051611412919061366c565b60405180910390a15b5050505050565b6101316020528060005260406000206000915090508060000160009054906101000a900473ffffffffffffffffffffffffffffffffffffffff16908060010154908060020154908060030154908060040154905085565b6060815167ffffffffffffffff8111156114965761149561272e565b5b6040519080825280602002602001820160405280156114cf57816020015b6114bc612262565b8152602001906001900390816114b45790505b50905060005b82518110156115c65761013160008483815181106114f6576114f5613687565b5b602002602001015181526020019081526020016000206040518060a00160405290816000820160009054906101000a900473ffffffffffffffffffffffffffffffffffffffff1673ffffffffffffffffffffffffffffffffffffffff1673ffffffffffffffffffffffffffffffffffffffff1681526020016001820154815260200160028201548152602001600382015481526020016004820154815250508282815181106115a8576115a7613687565b5b602002602001018190525080806115be906136b6565b9150506114d5565b50919050565b6000806101316000848152602001908152602001600020905060008160020154036115fe57806003015491505061165d565b806001015481600201546116129190612e69565b4282600201546116229190612e69565b826004015483600301546116369190612e69565b6116409190612dc7565b61164a9190612e38565b816004015461165991906134ad565b9150505b919050565b600060c9600084815260200190815260200160002060000160008373ffffffffffffffffffffffffffffffffffffffff1673ffffffffffffffffffffffffffffffffffffffff16815260200190815260200160002060009054906101000a900460ff16905092915050565b6116d5611b04565b600061013160008381526020019081526020016000209050600073ffffffffffffffffffffffffffffffffffffffff16610131600084815260200190815260200160002060000160009054906101000a900473ffffffffffffffffffffffffffffffffffffffff1673ffffffffffffffffffffffffffffffffffffffff1603611793576040517f08c379a000000000000000000000000000000000000000000000000000000000815260040161178a90612cb3565b60405180910390fd5b806002015442116117d9576040517f08c379a00000000000000000000000000000000000000000000000000000000081526004016117d09061348d565b60405180910390fd5b600081600201540361188b57610131600083815260200190815260200160002060000160009054906101000a900473ffffffffffffffffffffffffffffffffffffffff1673ffffffffffffffffffffffffffffffffffffffff163373ffffffffffffffffffffffffffffffffffffffff161461188a576040517f08c379a000000000000000000000000000000000000000000000000000000000815260040161188190613770565b60405180910390fd5b5b61013060009054906101000a900473ffffffffffffffffffffffffffffffffffffffff1673ffffffffffffffffffffffffffffffffffffffff1663f242432a308360000160009054906101000a900473ffffffffffffffffffffffffffffffffffffffff168560016040518563ffffffff1660e01b815260040161191294939291906133a4565b600060405180830381600087803b15801561192c57600080fd5b505af1158015611940573d6000803e3d6000fd5b505050506000610131600084815260200190815260200160002060000160006101000a81548173ffffffffffffffffffffffffffffffffffffffff021916908373ffffffffffffffffffffffffffffffffffffffff1602179055507f2809c7e17bf978fbc7194c0a694b638c4215e9140cacc6c38ca36010b45697df826040516119ca919061238f565b60405180910390a1506119db611b53565b50565b7fa3096443b30f1eec162a8cf66862cf662a85fd0e4fd35a824b183bfeac968c3281565b6000801b81565b600081565b6000801b81565b61012e5481565b600063bc197c8160e01b905095945050505050565b611a3a82610b6b565b611a4381611b5d565b611a4d8383611c5a565b505050565b600063f23a6e6160e01b905095945050505050565b6000808273ffffffffffffffffffffffffffffffffffffffff163b119050919050565b60007f7965db0b000000000000000000000000000000000000000000000000000000007bffffffffffffffffffffffffffffffffffffffffffffffffffffffff1916827bffffffffffffffffffffffffffffffffffffffffffffffffffffffff19161480611afd5750611afc82611e37565b5b9050919050565b600260fb5403611b49576040517f08c379a0000000000000000000000000000000000000000000000000000000008152600401611b40906137dc565b60405180910390fd5b600260fb81905550565b600160fb81905550565b611b6e81611b69611c52565b611eb1565b50565b611b7b8282611662565b611c4e57600160c9600084815260200190815260200160002060000160008373ffffffffffffffffffffffffffffffffffffffff1673ffffffffffffffffffffffffffffffffffffffff16815260200190815260200160002060006101000a81548160ff021916908315150217905550611bf3611c52565b73ffffffffffffffffffffffffffffffffffffffff168173ffffffffffffffffffffffffffffffffffffffff16837f2f8788117e7eff1d82e926ec794901d17c78024a50270940304540a733656f0d60405160405180910390a45b5050565b600033905090565b611c648282611662565b15611d3857600060c9600084815260200190815260200160002060000160008373ffffffffffffffffffffffffffffffffffffffff1673ffffffffffffffffffffffffffffffffffffffff16815260200190815260200160002060006101000a81548160ff021916908315150217905550611cdd611c52565b73ffffffffffffffffffffffffffffffffffffffff168173ffffffffffffffffffffffffffffffffffffffff16837ff6391f5c32d9c69d2a47ea670b442974b53935d1edc7fd64eb21e047a839171b60405160405180910390a45b5050565b600060019054906101000a900460ff16611d8b576040517f08c379a0000000000000000000000000000000000000000000000000000000008152600401611d829061386e565b60405180910390fd5b565b600060019054906101000a900460ff16611ddc576040517f08c379a0000000000000000000000000000000000000000000000000000000008152600401611dd39061386e565b60405180910390fd5b565b600060019054906101000a900460ff16611e2d576040517f08c379a0000000000000000000000000000000000000000000000000000000008152600401611e249061386e565b60405180910390fd5b611e35611f36565b565b60007f4e2312e0000000000000000000000000000000000000000000000000000000007bffffffffffffffffffffffffffffffffffffffffffffffffffffffff1916827bffffffffffffffffffffffffffffffffffffffffffffffffffffffff19161480611eaa5750611ea982611f8f565b5b9050919050565b611ebb8282611662565b611f3257611ec881611ff9565b611ed68360001c6020612026565b604051602001611ee792919061396d565b6040516020818303038152906040526040517f08c379a0000000000000000000000000000000000000000000000000000000008152600401611f2991906139e0565b60405180910390fd5b5050565b600060019054906101000a900460ff16611f85576040517f08c379a0000000000000000000000000000000000000000000000000000000008152600401611f7c9061386e565b60405180910390fd5b600160fb81905550565b60007f01ffc9a7000000000000000000000000000000000000000000000000000000007bffffffffffffffffffffffffffffffffffffffffffffffffffffffff1916827bffffffffffffffffffffffffffffffffffffffffffffffffffffffff1916149050919050565b606061201f8273ffffffffffffffffffffffffffffffffffffffff16601460ff16612026565b9050919050565b6060600060028360026120399190612dc7565b61204391906134ad565b67ffffffffffffffff81111561205c5761205b61272e565b5b6040519080825280601f01601f19166020018201604052801561208e5781602001600182028036833780820191505090505b5090507f3000000000000000000000000000000000000000000000000000000000000000816000815181106120c6576120c5613687565b5b60200101907effffffffffffffffffffffffffffffffffffffffffffffffffffffffffffff1916908160001a9053507f78000000000000000000000000000000000000000000000000000000000000008160018151811061212a57612129613687565b5b60200101907effffffffffffffffffffffffffffffffffffffffffffffffffffffffffffff1916908160001a9053506000600184600261216a9190612dc7565b61217491906134ad565b90505b6001811115612214577f3031323334353637383961626364656600000000000000000000000000000000600f8616601081106121b6576121b5613687565b5b1a60f81b8282815181106121cd576121cc613687565b5b60200101907effffffffffffffffffffffffffffffffffffffffffffffffffffffffffffff1916908160001a905350600485901c94508061220d90613a02565b9050612177565b5060008414612258576040517f08c379a000000000000000000000000000000000000000000000000000000000815260040161224f90613a77565b60405180910390fd5b8091505092915050565b6040518060a00160405280600073ffffffffffffffffffffffffffffffffffffffff168152602001600081526020016000815260200160008152602001600081525090565b6000604051905090565b600080fd5b600080fd5b60007fffffffff0000000000000000000000000000000000000000000000000000000082169050919050565b6122f0816122bb565b81146122fb57600080fd5b50565b60008135905061230d816122e7565b92915050565b600060208284031215612329576123286122b1565b5b6000612337848285016122fe565b91505092915050565b60008115159050919050565b61235581612340565b82525050565b6000602082019050612370600083018461234c565b92915050565b6000819050919050565b61238981612376565b82525050565b60006020820190506123a46000830184612380565b92915050565b600073ffffffffffffffffffffffffffffffffffffffff82169050919050565b6000819050919050565b60006123ef6123ea6123e5846123aa565b6123ca565b6123aa565b9050919050565b6000612401826123d4565b9050919050565b6000612413826123f6565b9050919050565b61242381612408565b82525050565b600060208201905061243e600083018461241a565b92915050565b61244d81612376565b811461245857600080fd5b50565b60008135905061246a81612444565b92915050565b600060208284031215612486576124856122b1565b5b60006124948482850161245b565b91505092915050565b6000819050919050565b6124b08161249d565b81146124bb57600080fd5b50565b6000813590506124cd816124a7565b92915050565b6000602082840312156124e9576124e86122b1565b5b60006124f7848285016124be565b91505092915050565b6125098161249d565b82525050565b60006020820190506125246000830184612500565b92915050565b6000612535826123aa565b9050919050565b6125458161252a565b811461255057600080fd5b50565b6000813590506125628161253c565b92915050565b6000806040838503121561257f5761257e6122b1565b5b600061258d858286016124be565b925050602061259e85828601612553565b9150509250929050565b600080600080608085870312156125c2576125c16122b1565b5b60006125d08782880161245b565b94505060206125e18782880161245b565b93505060406125f28782880161245b565b92505060606126038782880161245b565b91505092959194509250565b60008060408385031215612626576126256122b1565b5b60006126348582860161245b565b92505060206126458582860161245b565b9150509250929050565b60008060008060808587031215612669576126686122b1565b5b600061267787828801612553565b94505060206126888782880161245b565b93505060406126998782880161245b565b92505060606126aa8782880161245b565b91505092959194509250565b6126bf8161252a565b82525050565b600060a0820190506126da60008301886126b6565b6126e76020830187612380565b6126f46040830186612380565b6127016060830185612380565b61270e6080830184612380565b9695505050505050565b600080fd5b6000601f19601f8301169050919050565b7f4e487b7100000000000000000000000000000000000000000000000000000000600052604160045260246000fd5b6127668261271d565b810181811067ffffffffffffffff821117156127855761278461272e565b5b80604052505050565b60006127986122a7565b90506127a4828261275d565b919050565b600067ffffffffffffffff8211156127c4576127c361272e565b5b602082029050602081019050919050565b600080fd5b60006127ed6127e8846127a9565b61278e565b905080838252602082019050602084028301858111156128105761280f6127d5565b5b835b818110156128395780612825888261245b565b845260208401935050602081019050612812565b5050509392505050565b600082601f83011261285857612857612718565b5b81356128688482602086016127da565b91505092915050565b600060208284031215612887576128866122b1565b5b600082013567ffffffffffffffff8111156128a5576128a46122b6565b5b6128b184828501612843565b91505092915050565b600081519050919050565b600082825260208201905092915050565b6000819050602082019050919050565b6128ef8161252a565b82525050565b6128fe81612376565b82525050565b60a08201600082015161291a60008501826128e6565b50602082015161292d60208501826128f5565b50604082015161294060408501826128f5565b50606082015161295360608501826128f5565b50608082015161296660808501826128f5565b50505050565b60006129788383612904565b60a08301905092915050565b6000602082019050919050565b600061299c826128ba565b6129a681856128c5565b93506129b1836128d6565b8060005b838110156129e25781516129c9888261296c565b97506129d483612984565b9250506001810190506129b5565b5085935050505092915050565b60006020820190508181036000830152612a098184612991565b905092915050565b600080fd5b600067ffffffffffffffff821115612a3157612a3061272e565b5b612a3a8261271d565b9050602081019050919050565b82818337600083830152505050565b6000612a69612a6484612a16565b61278e565b905082815260208101848484011115612a8557612a84612a11565b5b612a90848285612a47565b509392505050565b600082601f830112612aad57612aac612718565b5b8135612abd848260208601612a56565b91505092915050565b600080600080600060a08688031215612ae257612ae16122b1565b5b6000612af088828901612553565b9550506020612b0188828901612553565b945050604086013567ffffffffffffffff811115612b2257612b216122b6565b5b612b2e88828901612843565b935050606086013567ffffffffffffffff811115612b4f57612b4e6122b6565b5b612b5b88828901612843565b925050608086013567ffffffffffffffff811115612b7c57612b7b6122b6565b5b612b8888828901612a98565b9150509295509295909350565b612b9e816122bb565b82525050565b6000602082019050612bb96000830184612b95565b92915050565b600080600080600060a08688031215612bdb57612bda6122b1565b5b6000612be988828901612553565b9550506020612bfa88828901612553565b9450506040612c0b8882890161245b565b9350506060612c1c8882890161245b565b925050608086013567ffffffffffffffff811115612c3d57612c3c6122b6565b5b612c4988828901612a98565b9150509295509295909350565b600082825260208201905092915050565b7f54686973204e4654206973206e6f742061756374696f6e656400000000000000600082015250565b6000612c9d601983612c56565b9150612ca882612c67565b602082019050919050565b60006020820190508181036000830152612ccc81612c90565b9050919050565b7f41756374696f6e2074696d6520697320616c7265616479206f76657200000000600082015250565b6000612d09601c83612c56565b9150612d1482612cd3565b602082019050919050565b60006020820190508181036000830152612d3881612cfc565b9050919050565b612d4881612340565b8114612d5357600080fd5b50565b600081519050612d6581612d3f565b92915050565b600060208284031215612d8157612d806122b1565b5b6000612d8f84828501612d56565b91505092915050565b7f4e487b7100000000000000000000000000000000000000000000000000000000600052601160045260246000fd5b6000612dd282612376565b9150612ddd83612376565b9250828202612deb81612376565b91508282048414831517612e0257612e01612d98565b5b5092915050565b7f4e487b7100000000000000000000000000000000000000000000000000000000600052601260045260246000fd5b6000612e4382612376565b9150612e4e83612376565b925082612e5e57612e5d612e09565b5b828204905092915050565b6000612e7482612376565b9150612e7f83612376565b9250828203905081811115612e9757612e96612d98565b5b92915050565b600081519050612eac8161253c565b92915050565b600060208284031215612ec857612ec76122b1565b5b6000612ed684828501612e9d565b91505092915050565b600081519050919050565b600082825260208201905092915050565b60005b83811015612f19578082015181840152602081019050612efe565b60008484015250505050565b6000612f3082612edf565b612f3a8185612eea565b9350612f4a818560208601612efb565b612f538161271d565b840191505092915050565b600060a082019050612f7360008301886126b6565b612f8060208301876126b6565b612f8d6040830186612380565b612f9a6060830185612380565b8181036080830152612fac8184612f25565b90509695505050505050565b6000819050919050565b6000612fdd612fd8612fd384612fb8565b6123ca565b612376565b9050919050565b612fed81612fc2565b82525050565b600060a08201905061300860008301886126b6565b61301560208301876126b6565b6130226040830186612380565b61302f6060830185612fe4565b81810360808301526130418184612f25565b90509695505050505050565b60006060820190506130626000830186612380565b61306f60208301856126b6565b61307c6040830184612380565b949350505050565b7f416363657373436f6e74726f6c3a2063616e206f6e6c792072656e6f756e636560008201527f20726f6c657320666f722073656c660000000000000000000000000000000000602082015250565b60006130e0602f83612c56565b91506130eb82613084565b604082019050919050565b6000602082019050818103600083015261310f816130d3565b9050919050565b7f4f6e6c79204e465420617661696c61626c650000000000000000000000000000600082015250565b600061314c601283612c56565b915061315782613116565b602082019050919050565b6000602082019050818103600083015261317b8161313f565b9050919050565b7f546f6b656e206973207265747261637465640000000000000000000000000000600082015250565b60006131b8601283612c56565b91506131c382613182565b602082019050919050565b600060208201905081810360008301526131e7816131ab565b9050919050565b7f54686973204e465420616c72656164792061756374696f6e6564000000000000600082015250565b6000613224601a83612c56565b915061322f826131ee565b602082019050919050565b6000602082019050818103600083015261325381613217565b9050919050565b7f456e642074696d65206d7573742067726561746572207468617420637572726560008201527f6e742074696d657374616d700000000000000000000000000000000000000000602082015250565b60006132b6602c83612c56565b91506132c18261325a565b604082019050919050565b600060208201905081810360008301526132e5816132a9565b9050919050565b7f5374617274207072696365206d7573742067726561746572207468617420656e60008201527f6420707269636500000000000000000000000000000000000000000000000000602082015250565b6000613348602783612c56565b9150613353826132ec565b604082019050919050565b600060208201905081810360008301526133778161333b565b9050919050565b50565b600061338e600083612eea565b91506133998261337e565b600082019050919050565b600060a0820190506133b960008301876126b6565b6133c660208301866126b6565b6133d36040830185612380565b6133e06060830184612fe4565b81810360808301526133f181613381565b905095945050505050565b60006080820190506134116000830187612380565b61341e6020830186612380565b61342b6040830185612380565b6134386060830184612380565b95945050505050565b7f41756374696f6e206973206e6f74206f76657220796574000000000000000000600082015250565b6000613477601783612c56565b915061348282613441565b602082019050919050565b600060208201905081810360008301526134a68161346a565b9050919050565b60006134b882612376565b91506134c383612376565b92508282019050808211156134db576134da612d98565b5b92915050565b7f526f79616c747920666565206d757374206265206c657373207468616e20697460008201527f732064656e6f6d696e61746f7200000000000000000000000000000000000000602082015250565b600061353d602d83612c56565b9150613548826134e1565b604082019050919050565b6000602082019050818103600083015261356c81613530565b9050919050565b60006040820190506135886000830185612380565b6135956020830184612380565b9392505050565b7f496e697469616c697a61626c653a20636f6e747261637420697320616c72656160008201527f647920696e697469616c697a6564000000000000000000000000000000000000602082015250565b60006135f8602e83612c56565b91506136038261359c565b604082019050919050565b60006020820190508181036000830152613627816135eb565b9050919050565b600060ff82169050919050565b600061365661365161364c84612fb8565b6123ca565b61362e565b9050919050565b6136668161363b565b82525050565b6000602082019050613681600083018461365d565b92915050565b7f4e487b7100000000000000000000000000000000000000000000000000000000600052603260045260246000fd5b60006136c182612376565b91507fffffffffffffffffffffffffffffffffffffffffffffffffffffffffffffffff82036136f3576136f2612d98565b5b600182019050919050565b7f4f6e6c79206f776e65722063616e2063616e63656c207468697320617563746960008201527f6f6e000000000000000000000000000000000000000000000000000000000000602082015250565b600061375a602283612c56565b9150613765826136fe565b604082019050919050565b600060208201905081810360008301526137898161374d565b9050919050565b7f5265656e7472616e637947756172643a207265656e7472616e742063616c6c00600082015250565b60006137c6601f83612c56565b91506137d182613790565b602082019050919050565b600060208201905081810360008301526137f5816137b9565b9050919050565b7f496e697469616c697a61626c653a20636f6e7472616374206973206e6f74206960008201527f6e697469616c697a696e67000000000000000000000000000000000000000000602082015250565b6000613858602b83612c56565b9150613863826137fc565b604082019050919050565b600060208201905081810360008301526138878161384b565b9050919050565b600081905092915050565b7f416363657373436f6e74726f6c3a206163636f756e7420000000000000000000600082015250565b60006138cf60178361388e565b91506138da82613899565b601782019050919050565b600081519050919050565b60006138fb826138e5565b613905818561388e565b9350613915818560208601612efb565b80840191505092915050565b7f206973206d697373696e6720726f6c6520000000000000000000000000000000600082015250565b600061395760118361388e565b915061396282613921565b601182019050919050565b6000613978826138c2565b915061398482856138f0565b915061398f8261394a565b915061399b82846138f0565b91508190509392505050565b60006139b2826138e5565b6139bc8185612c56565b93506139cc818560208601612efb565b6139d58161271d565b840191505092915050565b600060208201905081810360008301526139fa81846139a7565b905092915050565b6000613a0d82612376565b915060008203613a2057613a1f612d98565b5b600182039050919050565b7f537472696e67733a20686578206c656e67746820696e73756666696369656e74600082015250565b6000613a61602083612c56565b9150613a6c82613a2b565b602082019050919050565b60006020820190508181036000830152613a9081613a54565b905091905056fea264697066735822122055cbcd768f796d10f4f75345ebb9a6af297d40745e47190c363d0d5a478cf80464736f6c63430008110033",
  "linkReferences": {},
  "deployedLinkReferences": {}
}