{
  "_format": "hh-sol-artifact-1",
  "contractName": "MultiToken",
  "sourceName": "contracts/MultiToken.sol",
  "abi": [
    {
      "inputs": [],
      "stateMutability": "nonpayable",
      "type": "constructor"
    },
    {
      "anonymous": false,
      "inputs": [
        {
          "indexed": true,
          "internalType": "address",
          "name": "account",
          "type": "address"
        },
        {
          "indexed": true,
          "internalType": "address",
          "name": "operator",
          "type": "address"
        },
        {
          "indexed": false,
          "internalType": "bool",
          "name": "approved",
          "type": "bool"
        }
      ],
      "name": "ApprovalForAll",
      "type": "event"
    },
    {
      "anonymous": false,
      "inputs": [
        {
          "indexed": false,
          "internalType": "uint8",
          "name": "version",
          "type": "uint8"
        }
      ],
      "name": "Initialized",
      "type": "event"
    },
    {
      "anonymous": false,
      "inputs": [
        {
          "indexed": true,
          "internalType": "bytes32",
          "name": "role",
          "type": "bytes32"
        },
        {
          "indexed": true,
          "internalType": "bytes32",
          "name": "previousAdminRole",
          "type": "bytes32"
        },
        {
          "indexed": true,
          "internalType": "bytes32",
          "name": "newAdminRole",
          "type": "bytes32"
        }
      ],
      "name": "RoleAdminChanged",
      "type": "event"
    },
    {
      "anonymous": false,
      "inputs": [
        {
          "indexed": true,
          "internalType": "bytes32",
          "name": "role",
          "type": "bytes32"
        },
        {
          "indexed": true,
          "internalType": "address",
          "name": "account",
          "type": "address"
        },
        {
          "indexed": true,
          "internalType": "address",
          "name": "sender",
          "type": "address"
        }
      ],
      "name": "RoleGranted",
      "type": "event"
    },
    {
      "anonymous": false,
      "inputs": [
        {
          "indexed": true,
          "internalType": "bytes32",
          "name": "role",
          "type": "bytes32"
        },
        {
          "indexed": true,
          "internalType": "address",
          "name": "account",
          "type": "address"
        },
        {
          "indexed": true,
          "internalType": "address",
          "name": "sender",
          "type": "address"
        }
      ],
      "name": "RoleRevoked",
      "type": "event"
    },
    {
      "anonymous": false,
      "inputs": [
        {
          "indexed": true,
          "internalType": "address",
          "name": "operator",
          "type": "address"
        },
        {
          "indexed": true,
          "internalType": "address",
          "name": "from",
          "type": "address"
        },
        {
          "indexed": true,
          "internalType": "address",
          "name": "to",
          "type": "address"
        },
        {
          "indexed": false,
          "internalType": "uint256[]",
          "name": "ids",
          "type": "uint256[]"
        },
        {
          "indexed": false,
          "internalType": "uint256[]",
          "name": "values",
          "type": "uint256[]"
        }
      ],
      "name": "TransferBatch",
      "type": "event"
    },
    {
      "anonymous": false,
      "inputs": [
        {
          "indexed": true,
          "internalType": "address",
          "name": "operator",
          "type": "address"
        },
        {
          "indexed": true,
          "internalType": "address",
          "name": "from",
          "type": "address"
        },
        {
          "indexed": true,
          "internalType": "address",
          "name": "to",
          "type": "address"
        },
        {
          "indexed": false,
          "internalType": "uint256",
          "name": "id",
          "type": "uint256"
        },
        {
          "indexed": false,
          "internalType": "uint256",
          "name": "value",
          "type": "uint256"
        }
      ],
      "name": "TransferSingle",
      "type": "event"
    },
    {
      "anonymous": false,
      "inputs": [
        {
          "indexed": false,
          "internalType": "string",
          "name": "value",
          "type": "string"
        },
        {
          "indexed": true,
          "internalType": "uint256",
          "name": "id",
          "type": "uint256"
        }
      ],
      "name": "URI",
      "type": "event"
    },
    {
      "anonymous": false,
      "inputs": [
        {
          "indexed": false,
          "internalType": "uint256",
          "name": "nftTokenId",
          "type": "uint256"
        },
        {
          "indexed": false,
          "internalType": "address",
          "name": "admin",
          "type": "address"
        }
      ],
      "name": "adminSet",
      "type": "event"
    },
    {
      "anonymous": false,
      "inputs": [
        {
          "indexed": false,
          "internalType": "uint256",
          "name": "nftTokenId",
          "type": "uint256"
        },
        {
          "indexed": false,
          "internalType": "address",
          "name": "beneficiary",
          "type": "address"
        }
      ],
      "name": "beneficiarySet",
      "type": "event"
    },
    {
      "anonymous": false,
      "inputs": [
        {
          "indexed": false,
          "internalType": "uint256",
          "name": "nftTokenId",
          "type": "uint256"
        },
        {
          "indexed": false,
          "internalType": "uint64",
          "name": "createdAt",
          "type": "uint64"
        }
      ],
      "name": "creationTimeChanged",
      "type": "event"
    },
    {
      "anonymous": false,
      "inputs": [
        {
          "indexed": false,
          "internalType": "uint256",
          "name": "nftTokenId",
          "type": "uint256"
        },
        {
          "indexed": false,
          "internalType": "bytes32",
          "name": "errata",
          "type": "bytes32"
        }
      ],
      "name": "errataSet",
      "type": "event"
    },
    {
      "anonymous": false,
      "inputs": [
        {
          "indexed": false,
          "internalType": "uint256",
          "name": "nftTokenId",
          "type": "uint256"
        },
        {
          "indexed": false,
          "internalType": "bool",
          "name": "value",
          "type": "bool"
        }
      ],
      "name": "firstSaleFlagSet",
      "type": "event"
    },
    {
      "anonymous": false,
      "inputs": [
        {
          "indexed": false,
          "internalType": "uint256",
          "name": "nftTokenId",
          "type": "uint256"
        },
        {
          "indexed": false,
          "internalType": "bool",
          "name": "value",
          "type": "bool"
        }
      ],
      "name": "fullBenefitFlagSet",
      "type": "event"
    },
    {
      "anonymous": false,
      "inputs": [
        {
          "indexed": false,
          "internalType": "uint256",
          "name": "mintingFee",
          "type": "uint256"
        }
      ],
      "name": "mintingFeeSet",
      "type": "event"
    },
    {
      "anonymous": false,
      "inputs": [
        {
          "indexed": false,
          "internalType": "uint256",
          "name": "nftTokenId",
          "type": "uint256"
        },
        {
          "indexed": false,
          "internalType": "bool",
          "name": "value",
          "type": "bool"
        }
      ],
      "name": "retractionFlagSet",
      "type": "event"
    },
    {
      "anonymous": false,
      "inputs": [
        {
          "indexed": false,
          "internalType": "uint256",
          "name": "nftTokenId",
          "type": "uint256"
        },
        {
          "indexed": false,
          "internalType": "bool",
          "name": "value",
          "type": "bool"
        }
      ],
      "name": "soldFlagSet",
      "type": "event"
    },
    {
      "inputs": [],
      "name": "CEO_ROLE",
      "outputs": [
        {
          "internalType": "bytes32",
          "name": "",
          "type": "bytes32"
        }
      ],
      "stateMutability": "view",
      "type": "function"
    },
    {
      "inputs": [],
      "name": "CFO_ROLE",
      "outputs": [
        {
          "internalType": "bytes32",
          "name": "",
          "type": "bytes32"
        }
      ],
      "stateMutability": "view",
      "type": "function"
    },
    {
      "inputs": [],
      "name": "COO_ROLE",
      "outputs": [
        {
          "internalType": "bytes32",
          "name": "",
          "type": "bytes32"
        }
      ],
      "stateMutability": "view",
      "type": "function"
    },
    {
      "inputs": [],
      "name": "DEFAULT_ADMIN_ROLE",
      "outputs": [
        {
          "internalType": "bytes32",
          "name": "",
          "type": "bytes32"
        }
      ],
      "stateMutability": "view",
      "type": "function"
    },
    {
      "inputs": [],
      "name": "MARKETPLACE_ROLE",
      "outputs": [
        {
          "internalType": "bytes32",
          "name": "",
          "type": "bytes32"
        }
      ],
      "stateMutability": "view",
      "type": "function"
    },
    {
      "inputs": [],
      "name": "TOKEN",
      "outputs": [
        {
          "internalType": "uint256",
          "name": "",
          "type": "uint256"
        }
      ],
      "stateMutability": "view",
      "type": "function"
    },
    {
      "inputs": [],
      "name": "SUPERADMIN_ROLE",
      "outputs": [
        {
          "internalType": "bytes32",
          "name": "",
          "type": "bytes32"
        }
      ],
      "stateMutability": "view",
      "type": "function"
    },
    {
      "inputs": [],
      "name": "SUPERMINTER_ROLE",
      "outputs": [
        {
          "internalType": "bytes32",
          "name": "",
          "type": "bytes32"
        }
      ],
      "stateMutability": "view",
      "type": "function"
    },
    {
      "inputs": [
        {
          "internalType": "uint256",
          "name": "",
          "type": "uint256"
        }
      ],
      "name": "adminOf",
      "outputs": [
        {
          "internalType": "address",
          "name": "",
          "type": "address"
        }
      ],
      "stateMutability": "view",
      "type": "function"
    },
    {
      "inputs": [
        {
          "internalType": "address",
          "name": "account",
          "type": "address"
        },
        {
          "internalType": "uint256",
          "name": "id",
          "type": "uint256"
        }
      ],
      "name": "balanceOf",
      "outputs": [
        {
          "internalType": "uint256",
          "name": "",
          "type": "uint256"
        }
      ],
      "stateMutability": "view",
      "type": "function"
    },
    {
      "inputs": [
        {
          "internalType": "address[]",
          "name": "accounts",
          "type": "address[]"
        },
        {
          "internalType": "uint256[]",
          "name": "ids",
          "type": "uint256[]"
        }
      ],
      "name": "balanceOfBatch",
      "outputs": [
        {
          "internalType": "uint256[]",
          "name": "",
          "type": "uint256[]"
        }
      ],
      "stateMutability": "view",
      "type": "function"
    },
    {
      "inputs": [
        {
          "internalType": "uint256",
          "name": "",
          "type": "uint256"
        }
      ],
      "name": "beneficiaryOf",
      "outputs": [
        {
          "internalType": "address",
          "name": "",
          "type": "address"
        }
      ],
      "stateMutability": "view",
      "type": "function"
    },
    {
      "inputs": [
        {
          "internalType": "uint256",
          "name": "nftTokenId",
          "type": "uint256"
        },
        {
          "internalType": "address",
          "name": "newAdmin",
          "type": "address"
        }
      ],
      "name": "changeAdmin",
      "outputs": [],
      "stateMutability": "nonpayable",
      "type": "function"
    },
    {
      "inputs": [
        {
          "internalType": "uint256",
          "name": "nftTokenId",
          "type": "uint256"
        },
        {
          "internalType": "address",
          "name": "newBeneficiary",
          "type": "address"
        }
      ],
      "name": "changeBeneficiary",
      "outputs": [],
      "stateMutability": "nonpayable",
      "type": "function"
    },
    {
      "inputs": [
        {
          "internalType": "uint256",
          "name": "nftTokenId",
          "type": "uint256"
        },
        {
          "internalType": "uint64",
          "name": "createdAt",
          "type": "uint64"
        }
      ],
      "name": "changeCreationTime",
      "outputs": [],
      "stateMutability": "nonpayable",
      "type": "function"
    },
    {
      "inputs": [
        {
          "internalType": "uint256",
          "name": "id",
          "type": "uint256"
        }
      ],
      "name": "exists",
      "outputs": [
        {
          "internalType": "bool",
          "name": "",
          "type": "bool"
        }
      ],
      "stateMutability": "view",
      "type": "function"
    },
    {
      "inputs": [
        {
          "internalType": "bytes32",
          "name": "role",
          "type": "bytes32"
        }
      ],
      "name": "getRoleAdmin",
      "outputs": [
        {
          "internalType": "bytes32",
          "name": "",
          "type": "bytes32"
        }
      ],
      "stateMutability": "view",
      "type": "function"
    },
    {
      "inputs": [
        {
          "internalType": "bytes32",
          "name": "data",
          "type": "bytes32"
        },
        {
          "internalType": "bytes32",
          "name": "errata",
          "type": "bytes32"
        },
        {
          "internalType": "uint64",
          "name": "createdAt",
          "type": "uint64"
        },
        {
          "internalType": "uint8",
          "name": "status",
          "type": "uint8"
        },
        {
          "internalType": "address",
          "name": "owner",
          "type": "address"
        },
        {
          "internalType": "address",
          "name": "admin",
          "type": "address"
        },
        {
          "internalType": "address",
          "name": "beneficiary",
          "type": "address"
        }
      ],
      "name": "governorMintNFT",
      "outputs": [],
      "stateMutability": "nonpayable",
      "type": "function"
    },
    {
      "inputs": [
        {
          "internalType": "bytes32",
          "name": "role",
          "type": "bytes32"
        },
        {
          "internalType": "address",
          "name": "account",
          "type": "address"
        }
      ],
      "name": "grantRole",
      "outputs": [],
      "stateMutability": "nonpayable",
      "type": "function"
    },
    {
      "inputs": [
        {
          "internalType": "uint256",
          "name": "nftTokenId",
          "type": "uint256"
        }
      ],
      "name": "hasFirstSale",
      "outputs": [
        {
          "internalType": "bool",
          "name": "",
          "type": "bool"
        }
      ],
      "stateMutability": "view",
      "type": "function"
    },
    {
      "inputs": [
        {
          "internalType": "bytes32",
          "name": "role",
          "type": "bytes32"
        },
        {
          "internalType": "address",
          "name": "account",
          "type": "address"
        }
      ],
      "name": "hasRole",
      "outputs": [
        {
          "internalType": "bool",
          "name": "",
          "type": "bool"
        }
      ],
      "stateMutability": "view",
      "type": "function"
    },
    {
      "inputs": [
        {
          "internalType": "string",
          "name": "uri_",
          "type": "string"
        },
        {
          "internalType": "uint256",
          "name": "firstNftIndex",
          "type": "uint256"
        },
        {
          "internalType": "uint256",
          "name": "_mintingFee",
          "type": "uint256"
        }
      ],
      "name": "initialize",
      "outputs": [],
      "stateMutability": "nonpayable",
      "type": "function"
    },
    {
      "inputs": [
        {
          "internalType": "address",
          "name": "account",
          "type": "address"
        },
        {
          "internalType": "address",
          "name": "operator",
          "type": "address"
        }
      ],
      "name": "isApprovedForAll",
      "outputs": [
        {
          "internalType": "bool",
          "name": "",
          "type": "bool"
        }
      ],
      "stateMutability": "view",
      "type": "function"
    },
    {
      "inputs": [
        {
          "internalType": "uint256",
          "name": "nftTokenId",
          "type": "uint256"
        }
      ],
      "name": "isFullBenefit",
      "outputs": [
        {
          "internalType": "bool",
          "name": "",
          "type": "bool"
        }
      ],
      "stateMutability": "view",
      "type": "function"
    },
    {
      "inputs": [
        {
          "internalType": "uint256",
          "name": "nftTokenId",
          "type": "uint256"
        }
      ],
      "name": "isRetracted",
      "outputs": [
        {
          "internalType": "bool",
          "name": "",
          "type": "bool"
        }
      ],
      "stateMutability": "view",
      "type": "function"
    },
    {
      "inputs": [
        {
          "internalType": "uint256",
          "name": "",
          "type": "uint256"
        }
      ],
      "name": "metadata",
      "outputs": [
        {
          "internalType": "bytes32",
          "name": "data",
          "type": "bytes32"
        },
        {
          "internalType": "bytes32",
          "name": "errata",
          "type": "bytes32"
        },
        {
          "internalType": "uint64",
          "name": "createdAt",
          "type": "uint64"
        },
        {
          "internalType": "uint8",
          "name": "status",
          "type": "uint8"
        }
      ],
      "stateMutability": "view",
      "type": "function"
    },
    {
      "inputs": [
        {
          "internalType": "uint256",
          "name": "tokenId",
          "type": "uint256"
        },
        {
          "internalType": "address",
          "name": "to",
          "type": "address"
        },
        {
          "internalType": "uint256",
          "name": "amount",
          "type": "uint256"
        }
      ],
      "name": "mintFT",
      "outputs": [],
      "stateMutability": "nonpayable",
      "type": "function"
    },
    {
      "inputs": [
        {
          "internalType": "bytes32",
          "name": "data",
          "type": "bytes32"
        },
        {
          "internalType": "bytes32",
          "name": "errata",
          "type": "bytes32"
        }
      ],
      "name": "mintNFT",
      "outputs": [],
      "stateMutability": "nonpayable",
      "type": "function"
    },
    {
      "inputs": [],
      "name": "mintingFee",
      "outputs": [
        {
          "internalType": "uint256",
          "name": "",
          "type": "uint256"
        }
      ],
      "stateMutability": "view",
      "type": "function"
    },
    {
      "inputs": [
        {
          "internalType": "address",
          "name": "",
          "type": "address"
        },
        {
          "internalType": "address",
          "name": "",
          "type": "address"
        },
        {
          "internalType": "uint256[]",
          "name": "",
          "type": "uint256[]"
        },
        {
          "internalType": "uint256[]",
          "name": "",
          "type": "uint256[]"
        },
        {
          "internalType": "bytes",
          "name": "",
          "type": "bytes"
        }
      ],
      "name": "onERC1155BatchReceived",
      "outputs": [
        {
          "internalType": "bytes4",
          "name": "",
          "type": "bytes4"
        }
      ],
      "stateMutability": "nonpayable",
      "type": "function"
    },
    {
      "inputs": [
        {
          "internalType": "address",
          "name": "",
          "type": "address"
        },
        {
          "internalType": "address",
          "name": "",
          "type": "address"
        },
        {
          "internalType": "uint256",
          "name": "",
          "type": "uint256"
        },
        {
          "internalType": "uint256",
          "name": "",
          "type": "uint256"
        },
        {
          "internalType": "bytes",
          "name": "",
          "type": "bytes"
        }
      ],
      "name": "onERC1155Received",
      "outputs": [
        {
          "internalType": "bytes4",
          "name": "",
          "type": "bytes4"
        }
      ],
      "stateMutability": "nonpayable",
      "type": "function"
    },
    {
      "inputs": [
        {
          "internalType": "uint256",
          "name": "",
          "type": "uint256"
        }
      ],
      "name": "ownerOf",
      "outputs": [
        {
          "internalType": "address",
          "name": "",
          "type": "address"
        }
      ],
      "stateMutability": "view",
      "type": "function"
    },
    {
      "inputs": [
        {
          "internalType": "bytes32",
          "name": "role",
          "type": "bytes32"
        },
        {
          "internalType": "address",
          "name": "account",
          "type": "address"
        }
      ],
      "name": "renounceRole",
      "outputs": [],
      "stateMutability": "nonpayable",
      "type": "function"
    },
    {
      "inputs": [
        {
          "internalType": "bytes32",
          "name": "role",
          "type": "bytes32"
        },
        {
          "internalType": "address",
          "name": "account",
          "type": "address"
        }
      ],
      "name": "revokeRole",
      "outputs": [],
      "stateMutability": "nonpayable",
      "type": "function"
    },
    {
      "inputs": [
        {
          "internalType": "address",
          "name": "from",
          "type": "address"
        },
        {
          "internalType": "address",
          "name": "to",
          "type": "address"
        },
        {
          "internalType": "uint256[]",
          "name": "ids",
          "type": "uint256[]"
        },
        {
          "internalType": "uint256[]",
          "name": "amounts",
          "type": "uint256[]"
        },
        {
          "internalType": "bytes",
          "name": "data",
          "type": "bytes"
        }
      ],
      "name": "safeBatchTransferFrom",
      "outputs": [],
      "stateMutability": "nonpayable",
      "type": "function"
    },
    {
      "inputs": [
        {
          "internalType": "address",
          "name": "from",
          "type": "address"
        },
        {
          "internalType": "address",
          "name": "to",
          "type": "address"
        },
        {
          "internalType": "uint256",
          "name": "tokenId",
          "type": "uint256"
        },
        {
          "internalType": "uint256",
          "name": "amount",
          "type": "uint256"
        },
        {
          "internalType": "bytes",
          "name": "data",
          "type": "bytes"
        }
      ],
      "name": "safeTransferFrom",
      "outputs": [],
      "stateMutability": "nonpayable",
      "type": "function"
    },
    {
      "inputs": [
        {
          "internalType": "address",
          "name": "operator",
          "type": "address"
        },
        {
          "internalType": "bool",
          "name": "approved",
          "type": "bool"
        }
      ],
      "name": "setApprovalForAll",
      "outputs": [],
      "stateMutability": "nonpayable",
      "type": "function"
    },
    {
      "inputs": [
        {
          "internalType": "uint256",
          "name": "nftTokenId",
          "type": "uint256"
        },
        {
          "internalType": "bytes32",
          "name": "newErrata",
          "type": "bytes32"
        }
      ],
      "name": "setErrata",
      "outputs": [],
      "stateMutability": "nonpayable",
      "type": "function"
    },
    {
      "inputs": [
        {
          "internalType": "uint256",
          "name": "nftTokenId",
          "type": "uint256"
        }
      ],
      "name": "setFullBenefitFlag",
      "outputs": [],
      "stateMutability": "nonpayable",
      "type": "function"
    },
    {
      "inputs": [
        {
          "internalType": "uint256",
          "name": "newMintingFee",
          "type": "uint256"
        }
      ],
      "name": "setMintingFee",
      "outputs": [],
      "stateMutability": "nonpayable",
      "type": "function"
    },
    {
      "inputs": [
        {
          "internalType": "uint256",
          "name": "nftTokenId",
          "type": "uint256"
        }
      ],
      "name": "setRetractedFlag",
      "outputs": [],
      "stateMutability": "nonpayable",
      "type": "function"
    },
    {
      "inputs": [
        {
          "internalType": "uint256",
          "name": "nftTokenId",
          "type": "uint256"
        }
      ],
      "name": "setSoldFlag",
      "outputs": [],
      "stateMutability": "nonpayable",
      "type": "function"
    },
    {
      "inputs": [
        {
          "internalType": "bytes4",
          "name": "interfaceId",
          "type": "bytes4"
        }
      ],
      "name": "supportsInterface",
      "outputs": [
        {
          "internalType": "bool",
          "name": "",
          "type": "bool"
        }
      ],
      "stateMutability": "view",
      "type": "function"
    },
    {
      "inputs": [
        {
          "internalType": "uint256",
          "name": "id",
          "type": "uint256"
        }
      ],
      "name": "totalSupply",
      "outputs": [
        {
          "internalType": "uint256",
          "name": "",
          "type": "uint256"
        }
      ],
      "stateMutability": "view",
      "type": "function"
    },
    {
      "inputs": [
        {
          "internalType": "uint256",
          "name": "nftTokenId",
          "type": "uint256"
        }
      ],
      "name": "unsetFullBenefitFlag",
      "outputs": [],
      "stateMutability": "nonpayable",
      "type": "function"
    },
    {
      "inputs": [
        {
          "internalType": "uint256",
          "name": "nftTokenId",
          "type": "uint256"
        }
      ],
      "name": "unsetRetractedFlag",
      "outputs": [],
      "stateMutability": "nonpayable",
      "type": "function"
    },
    {
      "inputs": [
        {
          "internalType": "uint256",
          "name": "",
          "type": "uint256"
        }
      ],
      "name": "uri",
      "outputs": [
        {
          "internalType": "string",
          "name": "",
          "type": "string"
        }
      ],
      "stateMutability": "view",
      "type": "function"
    },
    {
      "inputs": [
        {
          "internalType": "address",
          "name": "to",
          "type": "address"
        }
      ],
      "name": "withdrawBalance",
      "outputs": [],
      "stateMutability": "nonpayable",
      "type": "function"
    }
  ],
  "bytecode": "0x60806040523480156200001157600080fd5b5060008060019054906101000a900460ff16159050808015620000445750600160008054906101000a900460ff1660ff16105b8062000080575062000061306200016360201b620022c71760201c565b1580156200007f5750600160008054906101000a900460ff1660ff16145b5b620000c2576040517f08c379a0000000000000000000000000000000000000000000000000000000008152600401620000b9906200020d565b60405180910390fd5b60016000806101000a81548160ff021916908360ff160217905550801562000100576001600060016101000a81548160ff0219169083151502179055505b80156200015c5760008060016101000a81548160ff0219169083151502179055507f7f26b83ff96e1f2b6a682f133852f6798a09c465da95921460cefb3847402498600160405162000153919062000289565b60405180910390a15b50620002a6565b6000808273ffffffffffffffffffffffffffffffffffffffff163b119050919050565b600082825260208201905092915050565b7f496e697469616c697a61626c653a20636f6e747261637420697320616c72656160008201527f647920696e697469616c697a6564000000000000000000000000000000000000602082015250565b6000620001f5602e8362000186565b9150620002028262000197565b604082019050919050565b600060208201905081810360008301526200022881620001e6565b9050919050565b6000819050919050565b600060ff82169050919050565b6000819050919050565b6000620002716200026b62000265846200022f565b62000246565b62000239565b9050919050565b620002838162000250565b82525050565b6000602082019050620002a0600083018462000278565b92915050565b615e4f80620002b66000396000f3fe608060405234801561001057600080fd5b506004361061029f5760003560e01c806387f0539c11610167578063bd85b039116100ce578063f23a6e6111610087578063f23a6e61146108a3578063f242432a146108d3578063f34baf71146108ef578063f8701a721461090b578063fc6b2da014610927578063fce0c454146109435761029f565b8063bd85b039146107ba578063c26706d4146107ea578063c3439f3f14610806578063d547741f14610824578063e3684e3914610840578063e985e9c5146108735761029f565b8063a22cb46511610120578063a22cb465146106e6578063aa5e0c2c14610702578063b0070a3014610720578063b514be631461073c578063bae37c5b1461075a578063bc197c811461078a5761029f565b806387f0539c1461062657806391d1485414610642578063977d08c0146106725780639d40b9cc1461068e5780639f6f50ed146106aa578063a217fddf146106c85761029f565b806339df837a1161020b5780635a64ad95116101c45780635a64ad95146105545780636352211e146105725780636cc5af29146105a25780636cd59ec2146105be578063756af45f146105ee5780637e1c22631461060a5761029f565b806339df837a1461046c5780633acfd44f146104885780634b801697146104a65780634e1273f4146104c45780634f558e79146104f45780635537a6fa146105245761029f565b80631f0ef67a1161025d5780631f0ef67a146103b0578063238a4709146103cc578063248a9ca3146103e85780632eb2c2d6146104185780632f2ff15d1461043457806336568abe146104505761029f565b8062fdd58e146102a457806301ffc9a7146102d4578063041c82211461030457806307088e2b146103345780630e89341c14610350578063124cfc8c14610380575b600080fd5b6102be60048036038101906102b99190613cdd565b610961565b6040516102cb9190613d2c565b60405180910390f35b6102ee60048036038101906102e99190613d9f565b610a2a565b6040516102fb9190613de7565b60405180910390f35b61031e60048036038101906103199190613e02565b610a3c565b60405161032b9190613de7565b60405180910390f35b61034e60048036038101906103499190613e02565b610a73565b005b61036a60048036038101906103659190613e02565b610b5e565b6040516103779190613ebf565b60405180910390f35b61039a60048036038101906103959190613e02565b610bf2565b6040516103a79190613ef0565b60405180910390f35b6103ca60048036038101906103c59190613f4b565b610c26565b005b6103e660048036038101906103e19190613e02565b610d14565b005b61040260048036038101906103fd9190613fc1565b610d81565b60405161040f9190613ffd565b60405180910390f35b610432600480360381019061042d9190614215565b610da2565b005b61044e600480360381019061044991906142e4565b610e68565b005b61046a600480360381019061046591906142e4565b610e89565b005b61048660048036038101906104819190614324565b610f0c565b005b610490610f9c565b60405161049d9190613ffd565b60405180910390f35b6104ae610fc0565b6040516104bb9190613ffd565b60405180910390f35b6104de60048036038101906104d9919061443a565b610fe4565b6040516104eb9190614570565b60405180910390f35b61050e60048036038101906105099190613e02565b6110fd565b60405161051b9190613de7565b60405180910390f35b61053e60048036038101906105399190613e02565b611111565b60405161054b9190613ef0565b60405180910390f35b61055c611145565b6040516105699190613d2c565b60405180910390f35b61058c60048036038101906105879190613e02565b61114c565b6040516105999190613ef0565b60405180910390f35b6105bc60048036038101906105b79190614592565b611180565b005b6105d860048036038101906105d39190613e02565b6112b4565b6040516105e59190613de7565b60405180910390f35b610608600480360381019061060391906145d2565b6112eb565b005b610624600480360381019061061f91906145ff565b61134c565b005b610640600480360381019061063b919061463f565b6115a3565b005b61065c600480360381019061065791906142e4565b6116a0565b6040516106699190613de7565b60405180910390f35b61068c60048036038101906106879190614720565b61170c565b005b6106a860048036038101906106a39190613e02565b61188b565b005b6106b2611977565b6040516106bf9190613ffd565b60405180910390f35b6106d061199b565b6040516106dd9190613ffd565b60405180910390f35b61070060048036038101906106fb91906147bb565b6119a2565b005b61070a6119b8565b6040516107179190613d2c565b60405180910390f35b61073a60048036038101906107359190614592565b6119bd565b005b610744611b60565b6040516107519190613ffd565b60405180910390f35b610774600480360381019061076f9190613e02565b611b67565b6040516107819190613de7565b60405180910390f35b6107a4600480360381019061079f9190614215565b611b9e565b6040516107b1919061480a565b60405180910390f35b6107d460048036038101906107cf9190613e02565b611bb3565b6040516107e19190613d2c565b60405180910390f35b61080460048036038101906107ff919061485e565b611bd0565b005b61080e611dea565b60405161081b9190613ffd565b60405180910390f35b61083e600480360381019061083991906142e4565b611e0e565b005b61085a60048036038101906108559190613e02565b611e2f565b60405161086a949392919061491e565b60405180910390f35b61088d60048036038101906108889190614963565b611e81565b60405161089a9190613de7565b60405180910390f35b6108bd60048036038101906108b891906149a3565b611f15565b6040516108ca919061480a565b60405180910390f35b6108ed60048036038101906108e891906149a3565b611f2a565b005b61090960048036038101906109049190613e02565b611faf565b005b61092560048036038101906109209190613e02565b6120d4565b005b610941600480360381019061093c9190613e02565b61217f565b005b61094b6122a3565b6040516109589190613ffd565b60405180910390f35b60008073ffffffffffffffffffffffffffffffffffffffff168373ffffffffffffffffffffffffffffffffffffffff16036109d1576040517f08c379a00000000000000000000000000000000000000000000000000000000081526004016109c890614aac565b60405180910390fd5b6065600083815260200190815260200160002060008473ffffffffffffffffffffffffffffffffffffffff1673ffffffffffffffffffffffffffffffffffffffff16815260200190815260200160002054905092915050565b6000610a35826122ea565b9050919050565b6000806001610162600085815260200190815260200160002060020160089054906101000a900460ff161660ff1614159050919050565b80610a9e7f2a287b3aa9cbc4866dd3c137fd192f1c5d81e788c6916b80b84b385305538d23336116a0565b610add576040517f08c379a0000000000000000000000000000000000000000000000000000000008152600401610ad490614b18565b60405180910390fd5b6004610162600084815260200190815260200160002060020160088282829054906101000a900460ff161792506101000a81548160ff021916908360ff1602179055507fe21430b55177fb0346fc1ac767c5a010992cae289da3c612f86ffd24ca421896826001604051610b52929190614b38565b60405180910390a15050565b606060678054610b6d90614b90565b80601f0160208091040260200160405190810160405280929190818152602001828054610b9990614b90565b8015610be65780601f10610bbb57610100808354040283529160200191610be6565b820191906000526020600020905b815481529060010190602001808311610bc957829003601f168201915b50505050509050919050565b6101656020528060005260406000206000915054906101000a900473ffffffffffffffffffffffffffffffffffffffff1681565b7fdc2f749ee0b3eb532b5dbab81cfb345e44f1005270591fb2759b54b5212fe811610c5081612364565b610c59836110fd565b610c98576040517f08c379a0000000000000000000000000000000000000000000000000000000008152600401610c8f90614c0d565b60405180910390fd5b81610162600085815260200190815260200160002060020160006101000a81548167ffffffffffffffff021916908367ffffffffffffffff1602179055507f69d9bb44c6adfc2ce15e6f99e6a3eff836113a39b321b8058b7b30ab4361084f8383604051610d07929190614c2d565b60405180910390a1505050565b7fa3096443b30f1eec162a8cf66862cf662a85fd0e4fd35a824b183bfeac968c32610d3e81612364565b81610161819055507fb7dc7fc51d92cc56d5672b168da215df112695513b8fab8f940258699cec492982604051610d759190613d2c565b60405180910390a15050565b600061012d6000838152602001908152602001600020600101549050919050565b60005b8351811015610e535761016054848281518110610dc557610dc4614c56565b5b602002602001015110610e4057846101636000868481518110610deb57610dea614c56565b5b6020026020010151815260200190815260200160002060006101000a81548173ffffffffffffffffffffffffffffffffffffffff021916908373ffffffffffffffffffffffffffffffffffffffff1602179055505b8080610e4b90614cb4565b915050610da5565b50610e618585858585612378565b5050505050565b610e7182610d81565b610e7a81612364565b610e848383612419565b505050565b610e916124fb565b73ffffffffffffffffffffffffffffffffffffffff168173ffffffffffffffffffffffffffffffffffffffff1614610efe576040517f08c379a0000000000000000000000000000000000000000000000000000000008152600401610ef590614d6e565b60405180910390fd5b610f088282612503565b5050565b7fd9862aa7b1613dc6fd13b0a56ef1fd54594543a041b4fb6a5bb115e6a806c238610f3681612364565b610160548410610f7b576040517f08c379a0000000000000000000000000000000000000000000000000000000008152600401610f7290614e00565b60405180910390fd5b610f96838584604051806020016040528060008152506125e6565b50505050565b7fd9862aa7b1613dc6fd13b0a56ef1fd54594543a041b4fb6a5bb115e6a806c23881565b7fdc2f749ee0b3eb532b5dbab81cfb345e44f1005270591fb2759b54b5212fe81181565b6060815183511461102a576040517f08c379a000000000000000000000000000000000000000000000000000000000815260040161102190614e92565b60405180910390fd5b6000835167ffffffffffffffff8111156110475761104661401d565b5b6040519080825280602002602001820160405280156110755781602001602082028036833780820191505090505b50905060005b84518110156110f2576110c285828151811061109a57611099614c56565b5b60200260200101518583815181106110b5576110b4614c56565b5b6020026020010151610961565b8282815181106110d5576110d4614c56565b5b602002602001018181525050806110eb90614cb4565b905061107b565b508091505092915050565b60008061110983611bb3565b119050919050565b6101646020528060005260406000206000915054906101000a900473ffffffffffffffffffffffffffffffffffffffff1681565b6101615481565b6101636020528060005260406000206000915054906101000a900473ffffffffffffffffffffffffffffffffffffffff1681565b81610164600082815260200190815260200160002060009054906101000a900473ffffffffffffffffffffffffffffffffffffffff1673ffffffffffffffffffffffffffffffffffffffff163373ffffffffffffffffffffffffffffffffffffffff1614611223576040517f08c379a000000000000000000000000000000000000000000000000000000000815260040161121a90614efe565b60405180910390fd5b81610164600085815260200190815260200160002060006101000a81548173ffffffffffffffffffffffffffffffffffffffff021916908373ffffffffffffffffffffffffffffffffffffffff1602179055507f6236a1f7248db8ed50f158cc72d20f8c72e9f753edf702ca5ee9dc60f545964483836040516112a7929190614f1e565b60405180910390a1505050565b6000806004610162600085815260200190815260200160002060020160089054906101000a900460ff161660ff1614159050919050565b7fa3096443b30f1eec162a8cf66862cf662a85fd0e4fd35a824b183bfeac968c3261131581612364565b61132130336001612797565b61134830836000611333306000610961565b60405180602001604052806000815250611f2a565b5050565b604051806080016040528083815260200182815260200161136c42612903565b67ffffffffffffffff168152602001600060ff16815250610162600061015f548152602001908152602001600020600082015181600001556020820151816001015560408201518160020160006101000a81548167ffffffffffffffff021916908367ffffffffffffffff16021790555060608201518160020160086101000a81548160ff021916908360ff16021790555090505033610163600061015f54815260200190815260200160002060006101000a81548173ffffffffffffffffffffffffffffffffffffffff021916908373ffffffffffffffffffffffffffffffffffffffff16021790555033610164600061015f54815260200190815260200160002060006101000a81548173ffffffffffffffffffffffffffffffffffffffff021916908373ffffffffffffffffffffffffffffffffffffffff16021790555033610165600061015f54815260200190815260200160002060006101000a81548173ffffffffffffffffffffffffffffffffffffffff021916908373ffffffffffffffffffffffffffffffffffffffff1602179055506002610162600061015f54815260200190815260200160002060020160088282829054906101000a900460ff161792506101000a81548160ff021916908360ff1602179055506115683361015f546001604051806020016040528060008152506125e6565b611588333060006101615460405180602001604052806000815250611f2a565b600161015f546115989190614f47565b61015f819055505050565b81610164600082815260200190815260200160002060009054906101000a900473ffffffffffffffffffffffffffffffffffffffff1673ffffffffffffffffffffffffffffffffffffffff163373ffffffffffffffffffffffffffffffffffffffff1614611646576040517f08c379a000000000000000000000000000000000000000000000000000000000815260040161163d90614efe565b60405180910390fd5b816101626000858152602001908152602001600020600101819055507fb2b0439347e80fd426bcb6b7e2b44e1263ae740d9c4902063abc9ede1d4558c68383604051611693929190614f7b565b60405180910390a1505050565b600061012d600084815260200190815260200160002060000160008373ffffffffffffffffffffffffffffffffffffffff1673ffffffffffffffffffffffffffffffffffffffff16815260200190815260200160002060009054906101000a900460ff16905092915050565b60008060019054906101000a900460ff1615905080801561173d5750600160008054906101000a900460ff1660ff16105b8061176a575061174c306122c7565b1580156117695750600160008054906101000a900460ff1660ff16145b5b6117a9576040517f08c379a00000000000000000000000000000000000000000000000000000000081526004016117a090615016565b60405180910390fd5b60016000806101000a81548160ff021916908360ff16021790555080156117e6576001600060016101000a81548160ff0219169083151502179055505b6117ee61295a565b6117f66129ab565b6117ff846129fc565b611807612a57565b6118146000801b33612419565b8261015f819055508261016081905550816101618190555080156118855760008060016101000a81548160ff0219169083151502179055507f7f26b83ff96e1f2b6a682f133852f6798a09c465da95921460cefb3847402498600160405161187c919061507b565b60405180910390a15b50505050565b806118b67f2a287b3aa9cbc4866dd3c137fd192f1c5d81e788c6916b80b84b385305538d23336116a0565b6118f5576040517f08c379a00000000000000000000000000000000000000000000000000000000081526004016118ec90614b18565b60405180910390fd5b600419610162600084815260200190815260200160002060020160088282829054906101000a900460ff161692506101000a81548160ff021916908360ff1602179055507fe21430b55177fb0346fc1ac767c5a010992cae289da3c612f86ffd24ca42189682600060405161196b929190614b38565b60405180910390a15050565b7fa3096443b30f1eec162a8cf66862cf662a85fd0e4fd35a824b183bfeac968c3281565b6000801b81565b6119b46119ad6124fb565b8383612797565b5050565b600081565b81610164600082815260200190815260200160002060009054906101000a900473ffffffffffffffffffffffffffffffffffffffff1673ffffffffffffffffffffffffffffffffffffffff163373ffffffffffffffffffffffffffffffffffffffff1614611a60576040517f08c379a0000000000000000000000000000000000000000000000000000000008152600401611a5790614efe565b60405180910390fd5b600073ffffffffffffffffffffffffffffffffffffffff168273ffffffffffffffffffffffffffffffffffffffff1603611acf576040517f08c379a0000000000000000000000000000000000000000000000000000000008152600401611ac6906150e2565b60405180910390fd5b81610165600085815260200190815260200160002060006101000a81548173ffffffffffffffffffffffffffffffffffffffff021916908373ffffffffffffffffffffffffffffffffffffffff1602179055507febe917baa89f3daa81e2f4183cb179ba457210020e7b2a17ef777948878663748383604051611b53929190614f1e565b60405180910390a1505050565b6000801b81565b6000806002610162600085815260200190815260200160002060020160089054906101000a900460ff161660ff1614159050919050565b600063bc197c8160e01b905095945050505050565b600060976000838152602001908152602001600020549050919050565b7fdc2f749ee0b3eb532b5dbab81cfb345e44f1005270591fb2759b54b5212fe811611bfa81612364565b60405180608001604052808981526020018881526020018767ffffffffffffffff1681526020018660ff16815250610162600061015f548152602001908152602001600020600082015181600001556020820151816001015560408201518160020160006101000a81548167ffffffffffffffff021916908367ffffffffffffffff16021790555060608201518160020160086101000a81548160ff021916908360ff16021790555090505083610163600061015f54815260200190815260200160002060006101000a81548173ffffffffffffffffffffffffffffffffffffffff021916908373ffffffffffffffffffffffffffffffffffffffff16021790555082610164600061015f54815260200190815260200160002060006101000a81548173ffffffffffffffffffffffffffffffffffffffff021916908373ffffffffffffffffffffffffffffffffffffffff16021790555081610165600061015f54815260200190815260200160002060006101000a81548173ffffffffffffffffffffffffffffffffffffffff021916908373ffffffffffffffffffffffffffffffffffffffff160217905550611dc78461015f546001604051806020016040528060008152506125e6565b61015f6000815480929190611ddb90614cb4565b91905055505050505050505050565b7f0ea61da3a8a09ad801432653699f8c1860b1ae9d2ea4a141fadfd63227717bc881565b611e1782610d81565b611e2081612364565b611e2a8383612503565b505050565b6101626020528060005260406000206000915090508060000154908060010154908060020160009054906101000a900467ffffffffffffffff16908060020160089054906101000a900460ff16905084565b6000606660008473ffffffffffffffffffffffffffffffffffffffff1673ffffffffffffffffffffffffffffffffffffffff16815260200190815260200160002060008373ffffffffffffffffffffffffffffffffffffffff1673ffffffffffffffffffffffffffffffffffffffff16815260200190815260200160002060009054906101000a900460ff16905092915050565b600063f23a6e6160e01b905095945050505050565b61016054831015611f4757611f428585858585612aa8565b611fa8565b83610163600085815260200190815260200160002060006101000a81548173ffffffffffffffffffffffffffffffffffffffff021916908373ffffffffffffffffffffffffffffffffffffffff160217905550611fa78585858585612aa8565b5b5050505050565b80610164600082815260200190815260200160002060009054906101000a900473ffffffffffffffffffffffffffffffffffffffff1673ffffffffffffffffffffffffffffffffffffffff163373ffffffffffffffffffffffffffffffffffffffff1614612052576040517f08c379a000000000000000000000000000000000000000000000000000000000815260040161204990614efe565b60405180910390fd5b600219610162600084815260200190815260200160002060020160088282829054906101000a900460ff161692506101000a81548160ff021916908360ff1602179055507f054b5fd8968e72ab34bebb0a49a95e7c0f5153a70aaa8caa8d4c8dfa9165bb518260006040516120c8929190614b38565b60405180910390a15050565b7f0ea61da3a8a09ad801432653699f8c1860b1ae9d2ea4a141fadfd63227717bc86120fe81612364565b6001610162600084815260200190815260200160002060020160088282829054906101000a900460ff161792506101000a81548160ff021916908360ff1602179055507f3936cd4bda0f0cbc1f7b858f086d97d965305e1a65f5ae2bee9b33d99e266e3a826001604051612173929190614b38565b60405180910390a15050565b80610164600082815260200190815260200160002060009054906101000a900473ffffffffffffffffffffffffffffffffffffffff1673ffffffffffffffffffffffffffffffffffffffff163373ffffffffffffffffffffffffffffffffffffffff1614612222576040517f08c379a000000000000000000000000000000000000000000000000000000000815260040161221990614efe565b60405180910390fd5b6002610162600084815260200190815260200160002060020160088282829054906101000a900460ff161792506101000a81548160ff021916908360ff1602179055507f054b5fd8968e72ab34bebb0a49a95e7c0f5153a70aaa8caa8d4c8dfa9165bb51826001604051612297929190614b38565b60405180910390a15050565b7f2a287b3aa9cbc4866dd3c137fd192f1c5d81e788c6916b80b84b385305538d2381565b6000808273ffffffffffffffffffffffffffffffffffffffff163b119050919050565b60007f7965db0b000000000000000000000000000000000000000000000000000000007bffffffffffffffffffffffffffffffffffffffffffffffffffffffff1916827bffffffffffffffffffffffffffffffffffffffffffffffffffffffff1916148061235d575061235c82612b49565b5b9050919050565b612375816123706124fb565b612bc3565b50565b6123806124fb565b73ffffffffffffffffffffffffffffffffffffffff168573ffffffffffffffffffffffffffffffffffffffff1614806123c657506123c5856123c06124fb565b611e81565b5b612405576040517f08c379a00000000000000000000000000000000000000000000000000000000081526004016123fc90615174565b60405180910390fd5b6124128585858585612c48565b5050505050565b61242382826116a0565b6124f757600161012d600084815260200190815260200160002060000160008373ffffffffffffffffffffffffffffffffffffffff1673ffffffffffffffffffffffffffffffffffffffff16815260200190815260200160002060006101000a81548160ff02191690831515021790555061249c6124fb565b73ffffffffffffffffffffffffffffffffffffffff168173ffffffffffffffffffffffffffffffffffffffff16837f2f8788117e7eff1d82e926ec794901d17c78024a50270940304540a733656f0d60405160405180910390a45b5050565b600033905090565b61250d82826116a0565b156125e257600061012d600084815260200190815260200160002060000160008373ffffffffffffffffffffffffffffffffffffffff1673ffffffffffffffffffffffffffffffffffffffff16815260200190815260200160002060006101000a81548160ff0219169083151502179055506125876124fb565b73ffffffffffffffffffffffffffffffffffffffff168173ffffffffffffffffffffffffffffffffffffffff16837ff6391f5c32d9c69d2a47ea670b442974b53935d1edc7fd64eb21e047a839171b60405160405180910390a45b5050565b600073ffffffffffffffffffffffffffffffffffffffff168473ffffffffffffffffffffffffffffffffffffffff1603612655576040517f08c379a000000000000000000000000000000000000000000000000000000000815260040161264c90615206565b60405180910390fd5b600061265f6124fb565b9050600061266c85612f6c565b9050600061267985612f6c565b905061268a83600089858589612fe6565b846065600088815260200190815260200160002060008973ffffffffffffffffffffffffffffffffffffffff1673ffffffffffffffffffffffffffffffffffffffff16815260200190815260200160002060008282546126ea9190614f47565b925050819055508673ffffffffffffffffffffffffffffffffffffffff16600073ffffffffffffffffffffffffffffffffffffffff168473ffffffffffffffffffffffffffffffffffffffff167fc3d58168c5ae7397731d063d5bbf3d657854427343f4c083240f7aacaa2d0f628989604051612768929190615226565b60405180910390a461277f836000898585896131b6565b61278e836000898989896131be565b50505050505050565b8173ffffffffffffffffffffffffffffffffffffffff168373ffffffffffffffffffffffffffffffffffffffff1603612805576040517f08c379a00000000000000000000000000000000000000000000000000000000081526004016127fc906152c1565b60405180910390fd5b80606660008573ffffffffffffffffffffffffffffffffffffffff1673ffffffffffffffffffffffffffffffffffffffff16815260200190815260200160002060008473ffffffffffffffffffffffffffffffffffffffff1673ffffffffffffffffffffffffffffffffffffffff16815260200190815260200160002060006101000a81548160ff0219169083151502179055508173ffffffffffffffffffffffffffffffffffffffff168373ffffffffffffffffffffffffffffffffffffffff167f17307eab39ab6107e8899845ad3d59bd9653f200f220920489ca2b5937696c31836040516128f69190613de7565b60405180910390a3505050565b600067ffffffffffffffff8016821115612952576040517f08c379a000000000000000000000000000000000000000000000000000000000815260040161294990615353565b60405180910390fd5b819050919050565b600060019054906101000a900460ff166129a9576040517f08c379a00000000000000000000000000000000000000000000000000000000081526004016129a0906153e5565b60405180910390fd5b565b600060019054906101000a900460ff166129fa576040517f08c379a00000000000000000000000000000000000000000000000000000000081526004016129f1906153e5565b60405180910390fd5b565b600060019054906101000a900460ff16612a4b576040517f08c379a0000000000000000000000000000000000000000000000000000000008152600401612a42906153e5565b60405180910390fd5b612a5481613395565b50565b600060019054906101000a900460ff16612aa6576040517f08c379a0000000000000000000000000000000000000000000000000000000008152600401612a9d906153e5565b60405180910390fd5b565b612ab06124fb565b73ffffffffffffffffffffffffffffffffffffffff168573ffffffffffffffffffffffffffffffffffffffff161480612af65750612af585612af06124fb565b611e81565b5b612b35576040517f08c379a0000000000000000000000000000000000000000000000000000000008152600401612b2c90615174565b60405180910390fd5b612b4285858585856133f0565b5050505050565b60007f4e2312e0000000000000000000000000000000000000000000000000000000007bffffffffffffffffffffffffffffffffffffffffffffffffffffffff1916827bffffffffffffffffffffffffffffffffffffffffffffffffffffffff19161480612bbc5750612bbb8261368e565b5b9050919050565b612bcd82826116a0565b612c4457612bda81613770565b612be88360001c602061379d565b604051602001612bf99291906154d9565b6040516020818303038152906040526040517f08c379a0000000000000000000000000000000000000000000000000000000008152600401612c3b9190613ebf565b60405180910390fd5b5050565b8151835114612c8c576040517f08c379a0000000000000000000000000000000000000000000000000000000008152600401612c8390615585565b60405180910390fd5b600073ffffffffffffffffffffffffffffffffffffffff168473ffffffffffffffffffffffffffffffffffffffff1603612cfb576040517f08c379a0000000000000000000000000000000000000000000000000000000008152600401612cf290615617565b60405180910390fd5b6000612d056124fb565b9050612d15818787878787612fe6565b60005b8451811015612ec9576000858281518110612d3657612d35614c56565b5b602002602001015190506000858381518110612d5557612d54614c56565b5b6020026020010151905060006065600084815260200190815260200160002060008b73ffffffffffffffffffffffffffffffffffffffff1673ffffffffffffffffffffffffffffffffffffffff16815260200190815260200160002054905081811015612df7576040517f08c379a0000000000000000000000000000000000000000000000000000000008152600401612dee906156a9565b60405180910390fd5b8181036065600085815260200190815260200160002060008c73ffffffffffffffffffffffffffffffffffffffff1673ffffffffffffffffffffffffffffffffffffffff16815260200190815260200160002081905550816065600085815260200190815260200160002060008b73ffffffffffffffffffffffffffffffffffffffff1673ffffffffffffffffffffffffffffffffffffffff1681526020019081526020016000206000828254612eae9190614f47565b9250508190555050505080612ec290614cb4565b9050612d18565b508473ffffffffffffffffffffffffffffffffffffffff168673ffffffffffffffffffffffffffffffffffffffff168273ffffffffffffffffffffffffffffffffffffffff167f4a39dc06d4c0dbc64b70af90fd698a233a518aa5d07e595d983b8c0526c8f7fb8787604051612f409291906156c9565b60405180910390a4612f568187878787876131b6565b612f648187878787876139d9565b505050505050565b60606000600167ffffffffffffffff811115612f8b57612f8a61401d565b5b604051908082528060200260200182016040528015612fb95781602001602082028036833780820191505090505b5090508281600081518110612fd157612fd0614c56565b5b60200260200101818152505080915050919050565b612ff4868686868686613bb0565b600073ffffffffffffffffffffffffffffffffffffffff168573ffffffffffffffffffffffffffffffffffffffff16036130a55760005b83518110156130a35782818151811061304757613046614c56565b5b60200260200101516097600086848151811061306657613065614c56565b5b60200260200101518152602001908152602001600020600082825461308b9190614f47565b925050819055508061309c90614cb4565b905061302b565b505b600073ffffffffffffffffffffffffffffffffffffffff168473ffffffffffffffffffffffffffffffffffffffff16036131ae5760005b83518110156131ac5760008482815181106130fa576130f9614c56565b5b60200260200101519050600084838151811061311957613118614c56565b5b602002602001015190506000609760008481526020019081526020016000205490508181101561317e576040517f08c379a000000000000000000000000000000000000000000000000000000000815260040161317590615772565b60405180910390fd5b8181036097600085815260200190815260200160002081905550505050806131a590614cb4565b90506130dc565b505b505050505050565b505050505050565b6131dd8473ffffffffffffffffffffffffffffffffffffffff166122c7565b1561338d578373ffffffffffffffffffffffffffffffffffffffff1663f23a6e6187878686866040518663ffffffff1660e01b81526004016132239594939291906157e7565b6020604051808303816000875af192505050801561325f57506040513d601f19601f8201168201806040525081019061325c9190615856565b60015b6133045761326b615890565b806308c379a0036132c7575061327f6158b2565b8061328a57506132c9565b806040517f08c379a00000000000000000000000000000000000000000000000000000000081526004016132be9190613ebf565b60405180910390fd5b505b6040517f08c379a00000000000000000000000000000000000000000000000000000000081526004016132fb906159b4565b60405180910390fd5b63f23a6e6160e01b7bffffffffffffffffffffffffffffffffffffffffffffffffffffffff1916817bffffffffffffffffffffffffffffffffffffffffffffffffffffffff19161461338b576040517f08c379a000000000000000000000000000000000000000000000000000000000815260040161338290615a46565b60405180910390fd5b505b505050505050565b600060019054906101000a900460ff166133e4576040517f08c379a00000000000000000000000000000000000000000000000000000000081526004016133db906153e5565b60405180910390fd5b6133ed81613bb8565b50565b600073ffffffffffffffffffffffffffffffffffffffff168473ffffffffffffffffffffffffffffffffffffffff160361345f576040517f08c379a000000000000000000000000000000000000000000000000000000000815260040161345690615617565b60405180910390fd5b60006134696124fb565b9050600061347685612f6c565b9050600061348385612f6c565b9050613493838989858589612fe6565b60006065600088815260200190815260200160002060008a73ffffffffffffffffffffffffffffffffffffffff1673ffffffffffffffffffffffffffffffffffffffff1681526020019081526020016000205490508581101561352b576040517f08c379a0000000000000000000000000000000000000000000000000000000008152600401613522906156a9565b60405180910390fd5b8581036065600089815260200190815260200160002060008b73ffffffffffffffffffffffffffffffffffffffff1673ffffffffffffffffffffffffffffffffffffffff16815260200190815260200160002081905550856065600089815260200190815260200160002060008a73ffffffffffffffffffffffffffffffffffffffff1673ffffffffffffffffffffffffffffffffffffffff16815260200190815260200160002060008282546135e29190614f47565b925050819055508773ffffffffffffffffffffffffffffffffffffffff168973ffffffffffffffffffffffffffffffffffffffff168573ffffffffffffffffffffffffffffffffffffffff167fc3d58168c5ae7397731d063d5bbf3d657854427343f4c083240f7aacaa2d0f628a8a60405161365f929190615226565b60405180910390a4613675848a8a86868a6131b6565b613683848a8a8a8a8a6131be565b505050505050505050565b60007fd9b67a26000000000000000000000000000000000000000000000000000000007bffffffffffffffffffffffffffffffffffffffffffffffffffffffff1916827bffffffffffffffffffffffffffffffffffffffffffffffffffffffff1916148061375957507f0e89341c000000000000000000000000000000000000000000000000000000007bffffffffffffffffffffffffffffffffffffffffffffffffffffffff1916827bffffffffffffffffffffffffffffffffffffffffffffffffffffffff1916145b80613769575061376882613bcb565b5b9050919050565b60606137968273ffffffffffffffffffffffffffffffffffffffff16601460ff1661379d565b9050919050565b6060600060028360026137b09190615a66565b6137ba9190614f47565b67ffffffffffffffff8111156137d3576137d261401d565b5b6040519080825280601f01601f1916602001820160405280156138055781602001600182028036833780820191505090505b5090507f30000000000000000000000000000000000000000000000000000000000000008160008151811061383d5761383c614c56565b5b60200101907effffffffffffffffffffffffffffffffffffffffffffffffffffffffffffff1916908160001a9053507f7800000000000000000000000000000000000000000000000000000000000000816001815181106138a1576138a0614c56565b5b60200101907effffffffffffffffffffffffffffffffffffffffffffffffffffffffffffff1916908160001a905350600060018460026138e19190615a66565b6138eb9190614f47565b90505b600181111561398b577f3031323334353637383961626364656600000000000000000000000000000000600f86166010811061392d5761392c614c56565b5b1a60f81b82828151811061394457613943614c56565b5b60200101907effffffffffffffffffffffffffffffffffffffffffffffffffffffffffffff1916908160001a905350600485901c94508061398490615aa8565b90506138ee565b50600084146139cf576040517f08c379a00000000000000000000000000000000000000000000000000000000081526004016139c690615b1d565b60405180910390fd5b8091505092915050565b6139f88473ffffffffffffffffffffffffffffffffffffffff166122c7565b15613ba8578373ffffffffffffffffffffffffffffffffffffffff1663bc197c8187878686866040518663ffffffff1660e01b8152600401613a3e959493929190615b3d565b6020604051808303816000875af1925050508015613a7a57506040513d601f19601f82011682018060405250810190613a779190615856565b60015b613b1f57613a86615890565b806308c379a003613ae25750613a9a6158b2565b80613aa55750613ae4565b806040517f08c379a0000000000000000000000000000000000000000000000000000000008152600401613ad99190613ebf565b60405180910390fd5b505b6040517f08c379a0000000000000000000000000000000000000000000000000000000008152600401613b16906159b4565b60405180910390fd5b63bc197c8160e01b7bffffffffffffffffffffffffffffffffffffffffffffffffffffffff1916817bffffffffffffffffffffffffffffffffffffffffffffffffffffffff191614613ba6576040517f08c379a0000000000000000000000000000000000000000000000000000000008152600401613b9d90615a46565b60405180910390fd5b505b505050505050565b505050505050565b8060679081613bc79190615d47565b5050565b60007f01ffc9a7000000000000000000000000000000000000000000000000000000007bffffffffffffffffffffffffffffffffffffffffffffffffffffffff1916827bffffffffffffffffffffffffffffffffffffffffffffffffffffffff1916149050919050565b6000604051905090565b600080fd5b600080fd5b600073ffffffffffffffffffffffffffffffffffffffff82169050919050565b6000613c7482613c49565b9050919050565b613c8481613c69565b8114613c8f57600080fd5b50565b600081359050613ca181613c7b565b92915050565b6000819050919050565b613cba81613ca7565b8114613cc557600080fd5b50565b600081359050613cd781613cb1565b92915050565b60008060408385031215613cf457613cf3613c3f565b5b6000613d0285828601613c92565b9250506020613d1385828601613cc8565b9150509250929050565b613d2681613ca7565b82525050565b6000602082019050613d416000830184613d1d565b92915050565b60007fffffffff0000000000000000000000000000000000000000000000000000000082169050919050565b613d7c81613d47565b8114613d8757600080fd5b50565b600081359050613d9981613d73565b92915050565b600060208284031215613db557613db4613c3f565b5b6000613dc384828501613d8a565b91505092915050565b60008115159050919050565b613de181613dcc565b82525050565b6000602082019050613dfc6000830184613dd8565b92915050565b600060208284031215613e1857613e17613c3f565b5b6000613e2684828501613cc8565b91505092915050565b600081519050919050565b600082825260208201905092915050565b60005b83811015613e69578082015181840152602081019050613e4e565b60008484015250505050565b6000601f19601f8301169050919050565b6000613e9182613e2f565b613e9b8185613e3a565b9350613eab818560208601613e4b565b613eb481613e75565b840191505092915050565b60006020820190508181036000830152613ed98184613e86565b905092915050565b613eea81613c69565b82525050565b6000602082019050613f056000830184613ee1565b92915050565b600067ffffffffffffffff82169050919050565b613f2881613f0b565b8114613f3357600080fd5b50565b600081359050613f4581613f1f565b92915050565b60008060408385031215613f6257613f61613c3f565b5b6000613f7085828601613cc8565b9250506020613f8185828601613f36565b9150509250929050565b6000819050919050565b613f9e81613f8b565b8114613fa957600080fd5b50565b600081359050613fbb81613f95565b92915050565b600060208284031215613fd757613fd6613c3f565b5b6000613fe584828501613fac565b91505092915050565b613ff781613f8b565b82525050565b60006020820190506140126000830184613fee565b92915050565b600080fd5b7f4e487b7100000000000000000000000000000000000000000000000000000000600052604160045260246000fd5b61405582613e75565b810181811067ffffffffffffffff821117156140745761407361401d565b5b80604052505050565b6000614087613c35565b9050614093828261404c565b919050565b600067ffffffffffffffff8211156140b3576140b261401d565b5b602082029050602081019050919050565b600080fd5b60006140dc6140d784614098565b61407d565b905080838252602082019050602084028301858111156140ff576140fe6140c4565b5b835b8181101561412857806141148882613cc8565b845260208401935050602081019050614101565b5050509392505050565b600082601f83011261414757614146614018565b5b81356141578482602086016140c9565b91505092915050565b600080fd5b600067ffffffffffffffff8211156141805761417f61401d565b5b61418982613e75565b9050602081019050919050565b82818337600083830152505050565b60006141b86141b384614165565b61407d565b9050828152602081018484840111156141d4576141d3614160565b5b6141df848285614196565b509392505050565b600082601f8301126141fc576141fb614018565b5b813561420c8482602086016141a5565b91505092915050565b600080600080600060a0868803121561423157614230613c3f565b5b600061423f88828901613c92565b955050602061425088828901613c92565b945050604086013567ffffffffffffffff81111561427157614270613c44565b5b61427d88828901614132565b935050606086013567ffffffffffffffff81111561429e5761429d613c44565b5b6142aa88828901614132565b925050608086013567ffffffffffffffff8111156142cb576142ca613c44565b5b6142d7888289016141e7565b9150509295509295909350565b600080604083850312156142fb576142fa613c3f565b5b600061430985828601613fac565b925050602061431a85828601613c92565b9150509250929050565b60008060006060848603121561433d5761433c613c3f565b5b600061434b86828701613cc8565b935050602061435c86828701613c92565b925050604061436d86828701613cc8565b9150509250925092565b600067ffffffffffffffff8211156143925761439161401d565b5b602082029050602081019050919050565b60006143b66143b184614377565b61407d565b905080838252602082019050602084028301858111156143d9576143d86140c4565b5b835b8181101561440257806143ee8882613c92565b8452602084019350506020810190506143db565b5050509392505050565b600082601f83011261442157614420614018565b5b81356144318482602086016143a3565b91505092915050565b6000806040838503121561445157614450613c3f565b5b600083013567ffffffffffffffff81111561446f5761446e613c44565b5b61447b8582860161440c565b925050602083013567ffffffffffffffff81111561449c5761449b613c44565b5b6144a885828601614132565b9150509250929050565b600081519050919050565b600082825260208201905092915050565b6000819050602082019050919050565b6144e781613ca7565b82525050565b60006144f983836144de565b60208301905092915050565b6000602082019050919050565b600061451d826144b2565b61452781856144bd565b9350614532836144ce565b8060005b8381101561456357815161454a88826144ed565b975061455583614505565b925050600181019050614536565b5085935050505092915050565b6000602082019050818103600083015261458a8184614512565b905092915050565b600080604083850312156145a9576145a8613c3f565b5b60006145b785828601613cc8565b92505060206145c885828601613c92565b9150509250929050565b6000602082840312156145e8576145e7613c3f565b5b60006145f684828501613c92565b91505092915050565b6000806040838503121561461657614615613c3f565b5b600061462485828601613fac565b925050602061463585828601613fac565b9150509250929050565b6000806040838503121561465657614655613c3f565b5b600061466485828601613cc8565b925050602061467585828601613fac565b9150509250929050565b600067ffffffffffffffff82111561469a5761469961401d565b5b6146a382613e75565b9050602081019050919050565b60006146c36146be8461467f565b61407d565b9050828152602081018484840111156146df576146de614160565b5b6146ea848285614196565b509392505050565b600082601f83011261470757614706614018565b5b81356147178482602086016146b0565b91505092915050565b60008060006060848603121561473957614738613c3f565b5b600084013567ffffffffffffffff81111561475757614756613c44565b5b614763868287016146f2565b935050602061477486828701613cc8565b925050604061478586828701613cc8565b9150509250925092565b61479881613dcc565b81146147a357600080fd5b50565b6000813590506147b58161478f565b92915050565b600080604083850312156147d2576147d1613c3f565b5b60006147e085828601613c92565b92505060206147f1858286016147a6565b9150509250929050565b61480481613d47565b82525050565b600060208201905061481f60008301846147fb565b92915050565b600060ff82169050919050565b61483b81614825565b811461484657600080fd5b50565b60008135905061485881614832565b92915050565b600080600080600080600060e0888a03121561487d5761487c613c3f565b5b600061488b8a828b01613fac565b975050602061489c8a828b01613fac565b96505060406148ad8a828b01613f36565b95505060606148be8a828b01614849565b94505060806148cf8a828b01613c92565b93505060a06148e08a828b01613c92565b92505060c06148f18a828b01613c92565b91505092959891949750929550565b61490981613f0b565b82525050565b61491881614825565b82525050565b60006080820190506149336000830187613fee565b6149406020830186613fee565b61494d6040830185614900565b61495a606083018461490f565b95945050505050565b6000806040838503121561497a57614979613c3f565b5b600061498885828601613c92565b925050602061499985828601613c92565b9150509250929050565b600080600080600060a086880312156149bf576149be613c3f565b5b60006149cd88828901613c92565b95505060206149de88828901613c92565b94505060406149ef88828901613cc8565b9350506060614a0088828901613cc8565b925050608086013567ffffffffffffffff811115614a2157614a20613c44565b5b614a2d888289016141e7565b9150509295509295909350565b7f455243313135353a2061646472657373207a65726f206973206e6f742061207660008201527f616c6964206f776e657200000000000000000000000000000000000000000000602082015250565b6000614a96602a83613e3a565b9150614aa182614a3a565b604082019050919050565b60006020820190508181036000830152614ac581614a89565b9050919050565b7f4f6e6c7920737570657261646d696e0000000000000000000000000000000000600082015250565b6000614b02600f83613e3a565b9150614b0d82614acc565b602082019050919050565b60006020820190508181036000830152614b3181614af5565b9050919050565b6000604082019050614b4d6000830185613d1d565b614b5a6020830184613dd8565b9392505050565b7f4e487b7100000000000000000000000000000000000000000000000000000000600052602260045260246000fd5b60006002820490506001821680614ba857607f821691505b602082108103614bbb57614bba614b61565b5b50919050565b7f546f6b656e20646f6573206e6f74206578697374000000000000000000000000600082015250565b6000614bf7601483613e3a565b9150614c0282614bc1565b602082019050919050565b60006020820190508181036000830152614c2681614bea565b9050919050565b6000604082019050614c426000830185613d1d565b614c4f6020830184614900565b9392505050565b7f4e487b7100000000000000000000000000000000000000000000000000000000600052603260045260246000fd5b7f4e487b7100000000000000000000000000000000000000000000000000000000600052601160045260246000fd5b6000614cbf82613ca7565b91507fffffffffffffffffffffffffffffffffffffffffffffffffffffffffffffffff8203614cf157614cf0614c85565b5b600182019050919050565b7f416363657373436f6e74726f6c3a2063616e206f6e6c792072656e6f756e636560008201527f20726f6c657320666f722073656c660000000000000000000000000000000000602082015250565b6000614d58602f83613e3a565b9150614d6382614cfc565b604082019050919050565b60006020820190508181036000830152614d8781614d4b565b9050919050565b7f54686520696e646578206f662074686520746f6b656e206d757374206d61746360008201527f68207468652066756e6769626c6520746f6b656e000000000000000000000000602082015250565b6000614dea603483613e3a565b9150614df582614d8e565b604082019050919050565b60006020820190508181036000830152614e1981614ddd565b9050919050565b7f455243313135353a206163636f756e747320616e6420696473206c656e67746860008201527f206d69736d617463680000000000000000000000000000000000000000000000602082015250565b6000614e7c602983613e3a565b9150614e8782614e20565b604082019050919050565b60006020820190508181036000830152614eab81614e6f565b9050919050565b7f4f6e6c792061646d696e00000000000000000000000000000000000000000000600082015250565b6000614ee8600a83613e3a565b9150614ef382614eb2565b602082019050919050565b60006020820190508181036000830152614f1781614edb565b9050919050565b6000604082019050614f336000830185613d1d565b614f406020830184613ee1565b9392505050565b6000614f5282613ca7565b9150614f5d83613ca7565b9250828201905080821115614f7557614f74614c85565b5b92915050565b6000604082019050614f906000830185613d1d565b614f9d6020830184613fee565b9392505050565b7f496e697469616c697a61626c653a20636f6e747261637420697320616c72656160008201527f647920696e697469616c697a6564000000000000000000000000000000000000602082015250565b6000615000602e83613e3a565b915061500b82614fa4565b604082019050919050565b6000602082019050818103600083015261502f81614ff3565b9050919050565b6000819050919050565b6000819050919050565b600061506561506061505b84615036565b615040565b614825565b9050919050565b6150758161504a565b82525050565b6000602082019050615090600083018461506c565b92915050565b7f41646472657373206d757374206e6f74206265206e756c6c0000000000000000600082015250565b60006150cc601883613e3a565b91506150d782615096565b602082019050919050565b600060208201905081810360008301526150fb816150bf565b9050919050565b7f455243313135353a2063616c6c6572206973206e6f7420746f6b656e206f776e60008201527f6572206f7220617070726f766564000000000000000000000000000000000000602082015250565b600061515e602e83613e3a565b915061516982615102565b604082019050919050565b6000602082019050818103600083015261518d81615151565b9050919050565b7f455243313135353a206d696e7420746f20746865207a65726f2061646472657360008201527f7300000000000000000000000000000000000000000000000000000000000000602082015250565b60006151f0602183613e3a565b91506151fb82615194565b604082019050919050565b6000602082019050818103600083015261521f816151e3565b9050919050565b600060408201905061523b6000830185613d1d565b6152486020830184613d1d565b9392505050565b7f455243313135353a2073657474696e6720617070726f76616c2073746174757360008201527f20666f722073656c660000000000000000000000000000000000000000000000602082015250565b60006152ab602983613e3a565b91506152b68261524f565b604082019050919050565b600060208201905081810360008301526152da8161529e565b9050919050565b7f53616665436173743a2076616c756520646f65736e27742066697420696e203660008201527f3420626974730000000000000000000000000000000000000000000000000000602082015250565b600061533d602683613e3a565b9150615348826152e1565b604082019050919050565b6000602082019050818103600083015261536c81615330565b9050919050565b7f496e697469616c697a61626c653a20636f6e7472616374206973206e6f74206960008201527f6e697469616c697a696e67000000000000000000000000000000000000000000602082015250565b60006153cf602b83613e3a565b91506153da82615373565b604082019050919050565b600060208201905081810360008301526153fe816153c2565b9050919050565b600081905092915050565b7f416363657373436f6e74726f6c3a206163636f756e7420000000000000000000600082015250565b6000615446601783615405565b915061545182615410565b601782019050919050565b600061546782613e2f565b6154718185615405565b9350615481818560208601613e4b565b80840191505092915050565b7f206973206d697373696e6720726f6c6520000000000000000000000000000000600082015250565b60006154c3601183615405565b91506154ce8261548d565b601182019050919050565b60006154e482615439565b91506154f0828561545c565b91506154fb826154b6565b9150615507828461545c565b91508190509392505050565b7f455243313135353a2069647320616e6420616d6f756e7473206c656e6774682060008201527f6d69736d61746368000000000000000000000000000000000000000000000000602082015250565b600061556f602883613e3a565b915061557a82615513565b604082019050919050565b6000602082019050818103600083015261559e81615562565b9050919050565b7f455243313135353a207472616e7366657220746f20746865207a65726f20616460008201527f6472657373000000000000000000000000000000000000000000000000000000602082015250565b6000615601602583613e3a565b915061560c826155a5565b604082019050919050565b60006020820190508181036000830152615630816155f4565b9050919050565b7f455243313135353a20696e73756666696369656e742062616c616e636520666f60008201527f72207472616e7366657200000000000000000000000000000000000000000000602082015250565b6000615693602a83613e3a565b915061569e82615637565b604082019050919050565b600060208201905081810360008301526156c281615686565b9050919050565b600060408201905081810360008301526156e38185614512565b905081810360208301526156f78184614512565b90509392505050565b7f455243313135353a206275726e20616d6f756e74206578636565647320746f7460008201527f616c537570706c79000000000000000000000000000000000000000000000000602082015250565b600061575c602883613e3a565b915061576782615700565b604082019050919050565b6000602082019050818103600083015261578b8161574f565b9050919050565b600081519050919050565b600082825260208201905092915050565b60006157b982615792565b6157c3818561579d565b93506157d3818560208601613e4b565b6157dc81613e75565b840191505092915050565b600060a0820190506157fc6000830188613ee1565b6158096020830187613ee1565b6158166040830186613d1d565b6158236060830185613d1d565b818103608083015261583581846157ae565b90509695505050505050565b60008151905061585081613d73565b92915050565b60006020828403121561586c5761586b613c3f565b5b600061587a84828501615841565b91505092915050565b60008160e01c9050919050565b600060033d11156158af5760046000803e6158ac600051615883565b90505b90565b600060443d1061593f576158c4613c35565b60043d036004823e80513d602482011167ffffffffffffffff821117156158ec57505061593f565b808201805167ffffffffffffffff81111561590a575050505061593f565b80602083010160043d03850181111561592757505050505061593f565b6159368260200185018661404c565b82955050505050505b90565b7f455243313135353a207472616e7366657220746f206e6f6e2d4552433131353560008201527f526563656976657220696d706c656d656e746572000000000000000000000000602082015250565b600061599e603483613e3a565b91506159a982615942565b604082019050919050565b600060208201905081810360008301526159cd81615991565b9050919050565b7f455243313135353a204552433131353552656365697665722072656a6563746560008201527f6420746f6b656e73000000000000000000000000000000000000000000000000602082015250565b6000615a30602883613e3a565b9150615a3b826159d4565b604082019050919050565b60006020820190508181036000830152615a5f81615a23565b9050919050565b6000615a7182613ca7565b9150615a7c83613ca7565b9250828202615a8a81613ca7565b91508282048414831517615aa157615aa0614c85565b5b5092915050565b6000615ab382613ca7565b915060008203615ac657615ac5614c85565b5b600182039050919050565b7f537472696e67733a20686578206c656e67746820696e73756666696369656e74600082015250565b6000615b07602083613e3a565b9150615b1282615ad1565b602082019050919050565b60006020820190508181036000830152615b3681615afa565b9050919050565b600060a082019050615b526000830188613ee1565b615b5f6020830187613ee1565b8181036040830152615b718186614512565b90508181036060830152615b858185614512565b90508181036080830152615b9981846157ae565b90509695505050505050565b60008190508160005260206000209050919050565b60006020601f8301049050919050565b600082821b905092915050565b600060088302615c077fffffffffffffffffffffffffffffffffffffffffffffffffffffffffffffffff82615bca565b615c118683615bca565b95508019841693508086168417925050509392505050565b6000615c44615c3f615c3a84613ca7565b615040565b613ca7565b9050919050565b6000819050919050565b615c5e83615c29565b615c72615c6a82615c4b565b848454615bd7565b825550505050565b600090565b615c87615c7a565b615c92818484615c55565b505050565b5b81811015615cb657615cab600082615c7f565b600181019050615c98565b5050565b601f821115615cfb57615ccc81615ba5565b615cd584615bba565b81016020851015615ce4578190505b615cf8615cf085615bba565b830182615c97565b50505b505050565b600082821c905092915050565b6000615d1e60001984600802615d00565b1980831691505092915050565b6000615d378383615d0d565b9150826002028217905092915050565b615d5082613e2f565b67ffffffffffffffff811115615d6957615d6861401d565b5b615d738254614b90565b615d7e828285615cba565b600060209050601f831160018114615db15760008415615d9f578287015190505b615da98582615d2b565b865550615e11565b601f198416615dbf86615ba5565b60005b82811015615de757848901518255600182019150602085019450602081019050615dc2565b86831015615e045784890151615e00601f891682615d0d565b8355505b6001600288020188555050505b50505050505056fea26469706673582212205937465e87a3427808bdd7963774e42c465153960005c319847fb6202a9f76bd64736f6c63430008110033",
  "linkReferences": {},
  "deployedLinkReferences": {}
}